:020000040000FA
:06000000F5EF05F012000F
:0A0006000100080C00006A00000071
:0400100001000000EB
:0C0014008C86010EE66EE66AD3EC04F068
:10002000E552E5528C96010EE66EE66AD3EC04F0DA
:10003000E552E5521200D9CFE6FFE1CFD9FFFB0E22
:10004000DB50E8B08C88E8A08C98FC0EDB50E8B060
:100050008C8AE8A08C9AFD0EDB50E8B08C8CE8A06E
:100060008C9CFE0EDB50E8B08C8EE8A08C9ED2DF1C
:10007000E552E7CFD9FF1200E66AE66A010EE66EA6
:10008000E66ED9DFE552E552E552E552E66AE66AE8
:10009000E66AE66AD0DFE552E552E552E552120023
:1000A000E66AE66AE66AE66AC6DFE552E552E552C6
:1000B000E552E66A010EE66EE66AE66ABCDFE552E4
:1000C000E552E552E5521200D9CFE6FFE1CFD9FF64
:1000D000E652DF6ADFCF14F0FD0EDB50E76E141836
:1000E000E8AE02D0E73402D0E750145C18E2010E0B
:1000F000E66EE66AE66AE66A9EDFE552E552E5529A
:10010000E552E66AE66AFE0EDBCFE6FF010EE66E1A
:1001100092DFE552E552E552E552DF2ADBD7E552A0
:10012000E552E7CFD9FF1200D9CFE6FFE1CFD9FFE3
:10013000E652DF6ADFCF14F0FD0EDB50E76E1418D5
:10014000E8AE02D0E73402D0E750145C17E2010EAB
:10015000E66EE66AE66AE66A6EDFE552E552E55269
:10016000E552E66AE66AFE0EDBCFE6FFE66A63DF8B
:10017000E552E552E552E552DF2ADCD7E552E55279
:10018000E7CFD9FF1200D9CFE6FFE1CFD9FFFE0EAE
:10019000DB50040A44E0070A2DE0010A17E0030AD5
:1001A00001E051D0E66AE66AE66A010EE66E43DFD8
:1001B000E552E552E552E552E66AE66AE66AE66A23
:1001C0003ADFE552E552E552E5523DD0E66AE66A8D
:1001D000010EE66EE66E2FDFE552E552E552E5527E
:1001E000E66AE66AE66AE66A26DFE552E552E55225
:1001F000E55229D0010EE66EE66AE66AE66E1BDF7E
:10020000E552E552E552E552E66AE66A010EE66E0F
:10021000E66A11DFE552E552E552E55214D0010ECF
:10022000E66EE66AE66EE66E06DFE552E552E552F8
:10023000E552E66AE66A010EE66EE66AFCDEE55223
:10024000E552E552E552E552E7CFD9FF1200D9CF8A
:10025000E6FFE1CFD9FF040EE1268C84FE0EDB50D1
:10026000800BE844010BDF6E060E146EFE0EDB50B1
:10027000400B14C0E7FFE75204E0E8427F0BE706BB
:10028000FCE1E76E010EE7CFDBFFFE0EDB50200B3B
:10029000E00BE838E840E76E020EE7CFDBFFFE0E2A
:1002A000DB50100BE8380F0BE76E030EE7CFDBFFD8
:1002B000DBCFE6FF020EDBCFE6FF010EDBCFE6FF72
:1002C000DFCFE6FFB8DEE552E552E552E552FE0E1D
:1002D000DB50080BE840E840E8401F0BDF6EFE0EE5
:1002E000DB50040BE840E8403F0BE76E010EE7CF20
:1002F000DBFFFE0EDB50020BE8407F0BE76E020EC9
:10030000E7CFDBFFFE0EDB50010BE76E030EE7CFFE
:10031000DBFFDBCFE6FF020EDBCFE6FF010EDBCF1C
:10032000E6FFDFCFE6FF87DEE552E552E552E55214
:100330008C94040EE15C02E2E16AE552E16EE55262
:10034000E7CFD9FF1200D9CFE6FFE1CFD9FFFD0EED
:10035000DBCFF6FFFE0EDBCFF7FF0800F55011E014
:10036000FD0EDBCFF6FFFE0EDBCFF7FF0800F550EA
:10037000E66E6DDFE552FD0EDB2AFE0E01E3DB2AA1
:10038000E6D7E552E7CFD9FF1200D9CFE6FFE1CF9C
:10039000D9FFFD0EDBCFE9FFFE0EDBCFEAFFEF500A
:1003A00010E0FD0EDBCFE9FFFE0EDBCFEAFFEF50E2
:1003B000E66E4DDFE552FD0EDB2AFE0E01E3DB2A81
:1003C000E8D7E552E7CFD9FF1200D9CFE6FFE1CF5A
:1003D000D9FF070EE126D9CFE6FFDACFE6FFFD0E03
:1003E000DBCFE6FFFE0EDBCFE6FF39EC04F0E55293
:1003F000E552E552E552FC0EDBCF14F0000EE76E3D
:100400001418E8AE02D0143403D0E750D880145446
:1004100001E37DD0D9CF14F0DACF15F0FC0EDBCF9D
:1004200016F0176A16BE176814501624E96E155098
:100430001720EA6EEF6AD9CF16F0DACF17F0FC0E6C
:10044000DB04186E196A18BE196816501824E96E74
:1004500017501920EA6EEF50E66EE66AD3EC05F00D
:10046000E552E552F3CF14F0F4CF15F01450151007
:100470004EE1FC0EDB04E76E060EE7CFDBFFDBCFC1
:1004800014F0000EE76E1418E8AE02D0143403D056
:10049000E750D88014543AE2D9CF18F0DACF19F0E7
:1004A000060EDB041A6E1B6A1ABE1B6818501A244B
:1004B000E96E19501B20EA6EEF50E66ED9CF14F0AA
:1004C000DACF15F0060EDBCF16F0176A16BE1768E6
:1004D00014501624E96E15501720EA6EE552E750C5
:1004E000EF6ED9CF14F0DACF15F0060EDB04166EDE
:1004F000176A16BE176814501624E96E1550172097
:10050000EA6E200EEF6E060EDB06B9D794D7D9CF70
:10051000E6FFDACFE6FF39DFE552E552070EE15C90
:1005200002E2E16AE552E16EE552E7CFD9FF12003F
:10053000E66AE66AE66AE66A7EDDE552E552E5527B
:10054000E552010EE66EE66AE66AE66A74DDE55299
:10055000E552E552E5521200D9CFE6FFE1CFD9FFCF
:10056000E66AE66AE66AE66A66DDE552E552E55263
:10057000E552FD0EDBCFE6FFFE0EDBCFE6FF010E00
:10058000E66EE66E58DDE552E552E552E552E5527B
:10059000E7CFD9FF1200D9CFE6FFE1CFD9FFFE0E9A
:1005A000DB50E8B08B82E8A08B92E552E7CFD9FF11
:1005B0001200D9CFE6FFE1CFD9FFFE0EDBCFE6FF79
:1005C00027EC05F0E5528C948C968C92640EE66EC6
:1005D000E66AD3EC04F0E552E552010EE66EE66EF3
:1005E000E66AE66A28DDE552E552E552E552050E77
:1005F000E66EE66AD3EC04F0E552E552010EE66ED3
:10060000E66EE66AE66A17DDE552E552E552E55226
:10061000050EE66EE66AD3EC04F0E552E552010EF3
:10062000E66EE66EE66AE66A06DDE552E552E552FA
:10063000E552050EE66EE66AD3EC04F0E552E552AB
:10064000E66A010EE66EE66AE66AF5DCE552E55218
:10065000E552E552E66A010EE66EE66AE66AEBDC12
:10066000E552E552E552E552E66AE66AE66A010EAF
:10067000E66EE1DCE552E552E552E552E66AE66AED
:10068000E66AE66AD8DCE552E552E552E552E66AEA
:10069000010EE66EE66EE66ECEDCE552E552E55200
:1006A000E552E66AE66A58DFE552E55241DFE55277
:0606B000E7CFD9FF1200A4
:0A06B600D9CFE6FFE1CFD9FF0B0E0C
:1006C000E126896A92688A6A93688B6AFD0E946E45
:1006D0008C6A956A8D6A9668140EE66ED9EC02F003
:1006E000E552010EE66ECBEC02F0E55250EC00F064
:1006F000E80EE66E030EE66ED3EC04F0E552E5522A
:10070000950EE66E0B0EE66EA3EC01F0E552E55297
:100710003CEC00F0840EE66E0B0EE66EA3EC01F0EE
:10072000E552E552E80EE66E030EE66ED3EC04F0F9
:10073000E552E552E80EE66E030EE66ED3EC04F0E9
:10074000E552E552E80EE66E030EE66ED3EC04F0D9
:10075000E552E552E80EE66E030EE66ED3EC04F0C9
:10076000E552E55298EC02F050EC00F0DF6A080E1A
:10077000DF5C1BE2010EDF5206E0DFCFF3FFE8464D
:10078000FE0BF306FCE1E66ED950030F146EDACFD0
:1007900015F0DF500F011424E96E000E1520EA6EEB
:1007A000E552E750EF6EDF2AE2D7DF6A080EDF5C22
:1007B0003FE298EC02F0810EE66E0B0EE66EA3ECC3
:1007C00001F0E552E552300EDF24E66E27EC01F031
:1007D000E5527D0EE66E0B0EE66EA3EC01F0E552DF
:1007E000E552010EE66EE66E64EC00F0E552E5526D
:1007F000040EE66ED950030F146EDACF15F0DF50F9
:100800000F011424E96E000E1520EA6EEF50E66E1B
:10081000E66AE5EC01F0E552E552E552E80EE66ED7
:10082000030EE66ED3EC04F0E552E552DF2ABED7A4
:1008300098EC02F050EC00F06D0EE66E0B0EE66EDA
:10084000A3EC01F0E552E5523CEC00F05C0EE66EE4
:100850000B0EE66EA3EC01F0E552E552FFD70B0E4E
:10086000E15C02E2E16AE552E16EE552E7CFD9FFD1
:02087000120074
:0E087200D9CFE6FFDACFE6FFFA0EE3CFD9FFCB
:10088000FB0EE3CFDAFFFD0EE35209E72D0EDE6E1D
:10089000FC0EE31EE32AFD0ED8B4E306E31EE65287
:1008A000E652E652FD0EE124E76EFF0EE220E46E12
:1008B000E652F70EE3CFE6FFF70EE3CFE6FFA9EC33
:1008C00004F0F90EE124E96EFF0EE220EA6E99ECE5
:1008D00004F00AE196EC04F009E199EC04F008E177
:1008E00096EC04F007E108D0A4EC04F09FEC04F0CF
:1008F000A4EC04F09FEC04F0A4EC04F0DE6AF90E22
:10090000E126FF0EE222FF0EE3CFDAFFE552FF0EF3
:10091000E3CFD9FFE552FC0EE124E96EFF0EE220A1
:10092000EA6EEECFF3FFEFCFF4FF1200EF380F0BBC
:100930001200EF500F0B02E1EE52D8841200EF3894
:100940000F0B300FDE6E1200EE500F0B300FDE6E0D
:100950001200FC0EE3CFE9FFFD0EE3CFEAFF100E1D
:10096000E66EEE6AEE6AEF6AD890FD0EE336FE0E92
:10097000E336ED36ED36EF36FF0EE30609E0CAEC5E
:1009800004F0EE52CAEC04F0EE52CAEC04F0EDD7DB
:10099000E56E1200030EEF24E8B6EF6E300EEF2482
:0609A000E8BEEF6E000C42
:0A09A600D9CFE6FFE1CFD9FF060E1E
:1009B000E126DE6ADD6A00016A51146E156AFD0ED9
:1009C000DBCF08F0FE0EDBCF09F014C00DF015C030
:1009D0000EF081EC05F006C0DEFF07C0DDFF020E61
:1009E000DB6A030EDB6A020EDBCF14F0030EDBCFF3
:1009F00015F0DECF16F0DDCF17F01650145C17504F
:100A000015581BE2040EDB6A050EDB6A040EDBCF11
:100A100014F0050EDBCF15F00C0E145C000E15580B
:100A200006E2040EDB2A050E01E3DB2AEFD7020EF5
:100A3000DB2A030E01E3DB2AD6D7060EE15C02E2D5
:100A4000E16AE552E16EE552E7CFD9FF1200D9CF56
:100A5000E6FFE1CFD9FFFE0EDBCF6AF0E552E7CF2C
:040A6000D9FF1200A8
:0C0A6400060EF66E000EF76E000EF86E27
:100A700000010900F550656F0900F550666F03E14C
:100A8000656701D03DD00900F550606F0900F55051
:100A9000616F0900F550626F09000900F550E96EB9
:100AA0000900F550EA6E090009000900F550636F6E
:100AB0000900F550646F09000900F6CF67F0F7CF21
:100AC00068F0F8CF69F060C0F6FF61C0F7FF62C060
:100AD000F8FF0001635302E1645307E00900F55099
:100AE000EE6E6307F8E26407F9D767C0F6FF68C0E7
:100AF000F7FF69C0F8FF00016507000E665BBFD70E
:020B00001200E1
:0E0B020009C013F008C012F008500D02F4CF25
:100B100007F0F3CF06F009500E02F4CF09F0F3CF3F
:100B200008F00D02F3500726F4500822E86A092263
:100B300012500E02F3500726F4500822E86A0922E8
:100B40000EAEA7EF05F01250085E1350095A13AE0F
:0C0B5000000C0D50085E0E50095A000CFD
:040B5C00706572202E
:100B60007269636F6D696E636961726500205072AE
:100B7000656D69202D3E2052455345540020203D8F
:100B800000325E006279204D617263656C6C6F2D7E
:100B9000323031310043616C636F6C6F2020506FD5
:060BA00074656E7A650029
:0A0BA600F36AF46AFF0EE124E96E21
:100BB000FF0EE220EA6EED6607D02F0EEF6404D040
:0A0BC0003A0EEF6001D0F32A120094
:060BCA00000EF36E00EEC8
:100BD00000F0040E01D81200EA6002D0EE6AFCD7E1
:0A0BE000F350E9601200EE6AFCD742
:060BEA0013EE00F023EE03
:100BF00000F0F86A019C32EC05F003EC06F05BECC7
:060C000003F0FBD7120017
:020C06001200DA
:010C080014D7
:020000040030CA
:010001000CF2
:010003001EDE
:010005008179
:010006008178
:00000001FF
