:020000040000FA
:060000008DEF21F012005B
:0600080004EF08F01200F5
:060018000CEF08F01200DD
:061000008DEF21F012004B
:061008002FEF0BF01200B7
:061018007AEF0BF012005C
:06102A0002009C430000DF
:10103000E5000000070000009A430000F2000000F5
:0410400002000000AA
:0C104400938A8150200B01E0010E120085
:1010500035EC0FF072EC0FF00BE0FD0EDB06FE0E30
:1010600001E2DB06030EE66EB7EC21F0E552F2D7A3
:101070003AEF0FF035EC0FF072EC0FF00BE0FD0ED5
:10108000DB06FE0E01E2DB06500EE66EA9EC21F057
:10109000E552F2D73AEF0FF035EC0FF0E652939AA3
:1010A000819AE00E86EC0FF0939A818A280EABECC1
:1010B0000FF0DF6EA80E86EC0FF0DF50E5523AEF2E
:1010C0000FF035EC0FF0E652939A819A020EABECDA
:1010D0000FF0050EABEC0FF0DF6EDF50E5523AEF8C
:1010E0000FF035EC0FF0939A819A020E2EEC0FF070
:1010F000FE0EDB5002E0939A818A640E2EEC0FF014
:10110000939A818A3AEF0FF0AEEC0FF0010EDB6A92
:10111000DF6A080EDF5C1AE2D4DF000912E0010E7C
:10112000DF5206E0DFCFF3FFE846FE0BF306FCE1FB
:10113000146E010EDBCFE7FF1450E712010EE7CF6C
:10114000DBFF780E2EEC0FF0DF2AE3D7010EDB5029
:10115000146E020EE15C02E2E16AE552E16E1450A7
:101160003AEF0FF0AEEC0FF0DF6A080EDF5C1BE227
:10117000FE0EDB50DF5206E0DFCFF3FFE8327F0BDD
:10118000F306FCE1E76E010EE7CFDBFFDB92DB94B9
:10119000DB96DB98DB9ADB9CDB9EDBCFE6FFA1DFF7
:1011A000E552DF2AE2D7690E2EEC0FF0020EE15C69
:1011B00002E2E16AE552E16E3AEF0FF035EC0FF032
:1011C000E652FE0EDB50550812E1550E54EC0FF0BE
:1011D000DF6A080EDF5C0EE2DF50EA6A620FE96E3A
:1011E000000EEA22EF5054EC0FF0DF2AF2D7CC0EBB
:1011F00054EC0FF0E5523AEF0FF035EC0FF0080E1B
:10120000E126010EF36E020EF3CFDBFF010EF36E4B
:10121000030EF3CFDBFF040EDB6A070EDB6A010E61
:10122000DB6A080EF36E010E81EC0FF006E24CEC67
:101230000FF0EF6A010EDB2AF4D72EDFE76E060E01
:10124000E7CFDBFFDB5003E10001605104E0000168
:10125000616B000E8CD0F00E54EC0FF0010EDB6AC7
:10126000DF6A2FDF000902E0020EDF6E780E2EEC3F
:101270000FF027DF000902E0000EDF80780E2EEC71
:101280000FF0030EDF5C59E0DF50000805E2DF409D
:101290007F0BE76E050E24D000016151F36E030E43
:1012A00081EC0FF00CE2020EDBCFE6FF4CEC0FF00E
:1012B000EF50E552E714000806E2010E07D0030ED6
:1012C000DB50615D02E0000E01D0010EE76E050EFD
:1012D000E7CFDBFFDB5006E1030EDB50E76E040EC9
:1012E000E7CFDBFF050EDB5006E04CEC0FF0020E03
:1012F000DB50EF1207D0020EDB1C146E4CEC0FF02B
:101300001450EF16050EDBCFE6FFEBDEE552030EC1
:10131000DB2A020EDB50020D020EF3CFDBFFDB50A7
:1013200006E1010EDB2AF36E020EF3CFDBFF080E9F
:10133000F36E010E81EC0FF093E3410EF36E030E9A
:1013400081EC0FF003E20001616B0FD0040EDBCFE4
:1013500061F00001615102E0000E01D0010E606FEA
:10136000010EF36E070EF3CFDBFF070EDB50146E9A
:10137000080EE15C02E2E16AE552E16E14503AEFD8
:101380000FF00001616B606BFDEF08F035EC0FF0C2
:1013900059EC0FF04E0E54EC0FF0FE0EDBCFE6FFD3
:1013A000E1DEE552FD0EDBCFE6FFDCDEE5520A0EA4
:1013B0002EEC0FF059EC0FF0480E54EC0FF00A0E23
:1013C000E66EE66A57DEE552E5523AEF0FF035EC8D
:1013D0000FF00E0EE12660DECC0EE66EEFDEE5527B
:1013E000939A818A440E54EC0FF0EE0EE66E020ED4
:1013F000E66E40DEE552E55259EC0FF0BE0E54ECBD
:101400000FF0DF6A090EDF5C13E27EDEE66ED95074
:10141000050F146EDACF15F0DF500F011424E96EBA
:10142000000EDA20EA6EE552E750EF6EDF2AEAD7C7
:10143000010EDB6A020EDB6A060EDBCF14F068ECED
:101440000FF0050EDB50146E156A7BEC0FF0145094
:10145000EE121550ED12100E0001625D57E17BECAB
:101460000FF0010E0F0B06E0EC52D890ED32EF3288
:10147000E806FAE1010EDBCF14F0020EDBCF15F027
:1014800068EC0FF07BEC0FF0400EEE5E000EED5AB4
:101490000C0EDBCFE6FF0B0EDB50E552E75CE66E91
:1014A000D950030FE96EDACFEAFFE552E750EE6E4E
:1014B000ED6A95EC0FF014C015F0146A8EEC0FF085
:1014C0000C0EDB5012E00C0EDB50146E156A030E8E
:1014D000DBCF08F0040EDBCF09F014C00DF015C00F
:1014E0000EF055EC21F09CEC0FF0010EDBCF16F066
:1014F000020EDBCF17F0030EDB501624146E040E21
:10150000DB501720156E8EEC0FF013D0010EDBCFE1
:1015100008F0020EDBCF09F09CEC0FF0D950030F5E
:10152000E96EDACFEAFF040ED890EE36ED36E80623
:10153000FBE195EC0FF014C0F3FF15C0F4FF0E0EA5
:10154000E15C02E2E16AE552E16E3AEF0FF03FDF63
:10155000F3CF1CF0F4CF1DF0F3CF08F0F4CF09F077
:101560004FEC1CF007C018F008C019F009C01AF0C1
:101570000AC01BF00C6A0D6A800E0E6E430E0F6ED1
:1015800062EC1CF007C006F008C007F009C008F0C4
:101590000AC009F0120035EC0FF0030EE126FE0E32
:1015A000DB50E76E020EE7CFDBFFFF0EE76EFD0EAE
:1015B000DBCF14F0E7501416156A14C0DEFF15C017
:1015C000DDFF640E086E096ADECF0DF0DDCF0EF090
:1015D000B5EC1CF006C0DEFF07C0DDFF146A010E8B
:1015E000156E14C00DF00E6EDECF08F0DDCF09F0E1
:1015F00055EC21F008C0DEFF09C0DDFFDFCF14F09D
:10160000156A14BE156814C0E6FF15C0E6FF020E89
:10161000DBCF16F0176A16BE176816C0E6FF17C0B4
:10162000E6FFA10E186E420E196E1A6A18C0E6FF88
:10163000E66E1AC0E6FFFB0EDBCFE6FFFC0EDBCF4B
:10164000E6FF55EC1FF01B6E090EE15E1B50030E0A
:10165000E15C02E2E16AE552E16E3AEF0FF0DACFC7
:10166000E4FFE2CFDAFFE9CFE4FFEACFE4FFF6CF11
:10167000E4FFF7CFE4FFF5CFE4FFF3CFE4FFF4CFCF
:10168000E4FFFACFE4FF00EE00F0140EE80403E3F9
:10169000EECFE4FFFBD700EE14F00A0EE80403E3FC
:1016A000EECFE4FFFBD7E65202EC10F0E55200EE7D
:1016B0001DF00A0EE80403E3E5CFEDFFFBD700EED3
:1016C00013F0140EE80403E3E5CFEDFFFBD7E5CFFD
:1016D000FAFFE5CFF4FFE5CFF3FFE5CFF5FFE5CF68
:1016E000F7FFE5CFF6FFE5CFEAFFE5CFE9FFE5CF6E
:1016F000DAFF1100D8CFE4FFE0CFE4FFE46EDACFE9
:10170000E4FFE652E552E5CFDAFFE550E5CFE0FF32
:10171000E5CFD8FF1000D9CFE6FFE1CFD9FFE652E1
:1017200056D8956A966833EC11F0040062D88B8025
:10173000DF6A27DE00093DE08B8249DEF3CFA9F0A6
:10174000F4CFAAF0A10EE66E000EE66EA9C0E6FF89
:10175000AAC0E6FF20DFE552E552E552E552F7DE8A
:1017600006C09DF007C09EF008C09FF009C0A0F021
:10177000A9C0E6FFAAC0E6FFA10EE66E000EE66E67
:10178000DFCFE6FFE66A770E146E420E156E166A1C
:1017900014C0E6FF15C0E6FF16C0E6FF47EC20F0D8
:1017A000176E090EE15E1750DF2A27DD0009C4E13C
:1017B000DF6A8B90D00EE66E070EE66E5BDCE552BC
:1017C000E552B4D7E552E552E7CFD9FF12000F0E2C
:1017D000C11202D8B2EF0FF0F00E8C1695169416C7
:1017E0009388938A0001E56BE66BE76BE86BE96B26
:1017F00012003BDB040EE1260001E95101E0F6D8BE
:10180000200E0001E76EAD19E8AE02D0E73402D039
:10181000E750AD5D01E2C5D06D50020B01E0C1D0D3
:101820000001E551E61102E1000E08D0E5C0E9FF34
:10183000E6C0EAFFEF50800B01E0010E000901E075
:10184000B0D005010051380A54E00F0A46E0B60A4C
:1018500030E0B30A2AE0030A25E0010A1DE0B00ADD
:1018600001E09ED00001E96B8B908B928B94620E0D
:10187000146E420E156E166A14C0E6FFE66E16C0B0
:10188000E6FF720EE66E000EE66E55EC1FF0176E68
:10189000050EE15E175084D00001E96B8B808B82CE
:1018A0008B847ED00001E96B7BD00001010EE96FD3
:1018B00077D0810E406F81AA03D0010E416F01D015
:1018C000416B0001E751E81102E1000E03D0F9DAA3
:1018D00001E0010E000964E156D00001E751E81172
:1018E00002E1000E03D0EDDA01E0010E000958E13B
:1018F0004AD00001E751E81102E1000E03D0E1DA1D
:1019000001E0010E00094CE162DDF3CFA9F0F4CF54
:10191000AAF0A10EE66E000EE66EF3CFE6FFF4CF5E
:10192000E6FF39DEE552E552E552E55210DE06C02B
:101930009DF007C09EF008C09FF009C0A0F08B8208
:101940000501380E406F9AC041F5A2C042F5A3C010
:1019500043F5A4C044F5A5C045F5A6C046F5A7C00B
:1019600047F5A8C048F5A9C049F5A9C04AF506C081
:1019700007F09EC008F09FC009F0A0C00AF0E2EC9A
:101980001CF009C04BF5400EE66E400EE66E050EEB
:10199000E66E010EE66ED7DAF3CFE7F0F4CFE8F0AB
:1019A0006DDA040EE15C02E2E16AE552E16E62D2B8
:1019B000D5DA9280010EC26E3C0EC06EC08EC2821D
:1019C000C2B2FED7C350DF6E010EC4CFDBFFDECF45
:1019D00014F0DDCF15F014C0F3FF15C0F4FF020EB4
:1019E000E15C02E2E16AE552E16E44D20001EA51B3
:1019F000EB1104E1100EEA6F270EEB6FEA07000E01
:101A0000EB5B6DA207D0EA51EB112EE18B708BB02E
:101A100013D027D00001AD5102E18B9022D0AD054B
:101A200002E18B8009D0020EAD5D02E18B8019D0FE
:101A3000040EAD5D03E18B908B821200100EAD5D44
:101A400006E10001EA51EB110FE18B700AD0200E84
:101A5000AD5D0AE10001EA51EB1106E18B708BA04C
:101A600002D08B9212008B82120012001200120020
:101A700012008EEF1EF012001E0EE66E010EE66ED4
:101A800090EC10F0E552E5523EEF0FF00001CC056E
:101A900020E10001CD051DE1A09AE8DF6D92000173
:101AA000CD6B0001100EAB6F0E0EAC6FAB07000ECE
:101AB000AC5BAB51AC11FAE16D84080EAB6F070E55
:101AC000AC6FAB07000EAC5BAB51AC11FAE16D949F
:101AD000A08A1200CAD9FD0EDBCF08F0FE0EDBCFC4
:101AE00009F0050E081801E1095036E0E868081809
:101AF00002E17F0E09182FE0030E081801E10950DA
:101B000028E0020E081801E1095021E0010E081832
:101B100001E109501AE0740E081801E1095013E0C0
:101B2000750E081801E109500CE0730E081801E168
:101B3000095005E0720E08180FE109500DD097DF2B
:101B40000BD093DF09D092DF07D096DF05D093DF6B
:101B500003D08FDF01D08CDF010E8CD1D9CFE6FF0F
:101B6000E1CFD9FF0B0EE12604008FEC1DF0330E00
:101B7000E66EBDEC1DF0E552200EE66E7DEC21F028
:101B8000E552090EDB6A090EF36E090EDBCFF4FF96
:101B9000F350F45C2EE2EDEC1DF0F350E66ED9CF7D
:101BA00014F0DACF15F0090EDB500F011424E96EA2
:101BB000000E1520EA6EE552E750EF6ED9CF14F013
:101BC000DACF15F0090EDB500F011424E96E000E78
:101BD0001520EA6EEF50E66E090EDB50EA6A6A0FD6
:101BE000E96E000EEA22E552E750EF6E090EDB2A9D
:101BF000CAD78FEC1DF08FEC1DF00B0EE15C02E2FA
:101C0000E16AE552E16EE552E7CFD9FF1200D9CF84
:101C1000E6FFE1CFD9FF030EE126DF6A010EDB6AA2
:101C2000020EDB6A04008FEC1DF0FC0EDBCFE6FF3A
:101C3000FD0EDBCFE6FF38EC1EF0E552E552F50E67
:101C4000E66EBDEC1DF0E552EDEC1DF0020EF3CF9B
:101C5000DBFF030EE66E7DEC21F0E552050EE66E2D
:101C60007DEC21F0E552EDEC1DF0F350DF6E8FECD2
:101C70001DF0A50EE66EBDEC1DF0E552C30EE66E3E
:101C8000BDEC1DF0E5528FEC1DF0020EDB1C00D008
:101C9000146E030EE15C02E2E16AE552E16E14505B
:101CA000E552E7CFD9FF1200D9CFE6FFE1CFD9FF48
:101CB0000F0EE126080EDB6A090EDB6A0A0EDB6AEC
:101CC0000B0EDB6A0C0EDB6A0D0EDB6A0E0EDB6A96
:101CD00004008FEC1DF0FD0EDBCFE6FFFE0EDBCF28
:101CE000E6FF38EC1EF0E552E552440EE66EBDEC20
:101CF0001DF0E5521C0EE66E7DEC21F0E5528FECF6
:101D00001DF0FD0EDBCFE6FFFE0EDBCFE6FF38EC6D
:101D10001EF0E552E552BE0EE66EBDEC1DF0E5523A
:101D20000C0EDB6A080EF36E0C0EDBCFF4FFF350E3
:101D3000F45C16E2EDEC1DF0F350E66ED9CF14F032
:101D4000DACF15F00C0EDB500F011424E96E000EF3
:101D50001520EA6EE552E750EF6E0C0EDB2AE2D753
:101D60008FEC1DF0080EDFCFDBFF010EDB50E76EBE
:101D7000090EE7CFDBFF080EF36E090EDBCFF4FF91
:101D8000F350F45C12E32D0EF36E0E0EF3CFDBFF77
:101D9000090EDB1CE76E090EE7CFDBFF080EDB1C2C
:101DA000E76E080EE7CFDBFF05D02B0EF36E0E0EAD
:101DB000F3CFDBFF080EDB500F0BE76E0D0EE7CF06
:101DC000DBFF080EDB380F0BE76E080EE7CFDBFFFB
:101DD0000D0EDB500F0BE76E0D0EE7CFDBFF0D0E88
:101DE000DB500A0DF350F00BE83AE76E0D0EE7CF2B
:101DF000DBFF090EDB50100D090EF3CFDBFF080EE1
:101E0000DBCFE6FF090EDB50E552E710E76E0A0E66
:101E1000E7CFDBFF000EF36E0A0EDBCFF4FFF350CB
:101E2000F45C0DE30A0EDB50320809E30E0EDBCF43
:101E30009AF00A0EDBCF9BF00D0EDBCF9CF00A0E62
:101E4000DB5000D0146E0F0EE15C02E2E16AE55255
:101E5000E16E1450E552E7CFD9FF1200E66EE66A54
:101E600028EC08F0E552E5521200D9CFE6FFE1CFA9
:101E7000D9FF1200E552E7CFD9FF1200400EE66EFF
:101E8000000EE66E050EE66EE66A010E5CD8F3CF34
:101E9000E5F0F4CFE6F01200010EDB50EA6A620FC3
:101EA000E96E000EEA221200E66EB2EC08F0E5528E
:101EB00012004CEC08F0550EE66EDEEC08F0E55230
:101EC0001200E7C0E9FFE8C0EAFFEF50800B120004
:101ED00014C015F0146A010E14C0DBFF020E15C009
:101EE000DBFF1200D950FD0FE96EFF0EDA20EA6E1B
:101EF000EE50ED101200D950010FE96EDACFEAFF73
:101F00001200DBCFF4FFF350F45C1200E66E010E1A
:101F1000E66E28EC08F0E552E5521200030E14C0FC
:101F2000DBFF040E15C0DBFF1200030EDBCF14F045
:101F3000040EDBCF15F01200030E08C0DBFF040E09
:101F400009C0DBFF1200E66EB4EC10F0146E050E53
:101F5000E15E1450120082DF22EF08F086DF020EED
:041F6000E126120064
:0C1F640007EC16F0A09A6A6A686A706ABE
:101F700051EC15F09FEC15F0DF6A87EC15F003E2E9
:101F800037EC15F0FAD76D8C6E6A6D986D9C68A66B
:101F900007D068960001C06BC56BC66BC76BF7D7DF
:101FA0000001010ED76FD86FD96BDA6BCD6BDF6A8A
:101FB000020EDF5C11E2EA6ADF340AEC16F0EA2274
:101FC000EE6AED6AEA6ADF3411EC16F0EA22EE6A94
:101FD000ED6A47EC15F0ECD70001080EB86F040E5F
:101FE000B96F160E706E0401200E026F040E036F9F
:101FF000080E016F840E006F0001AE6BAD6BE552F1
:1020000011EF15F007EC16F00001AD0507E16DBA10
:1020100005D0686A69806988020EAD6F6850040B4C
:1020200005E06950040B02E068943FDB6DB245D0D7
:102030006850010B09E06950010B06E093DFA08AAC
:102040000001040EAD6F68906850100B05E06950F8
:10205000100B02E020DB689868AC0FD069AC05D0AB
:10206000A6EC15F0730EFEEC14F0689C0001D5513F
:1020700001E0D507D55101E109D96850200B04E0F2
:102080006950200B01E0F7DA6850020B0BE0695051
:10209000020B08E0A6EC15F0E6687F0EE66E18EC81
:1020A00016F06A6A040E0001E76EAD19E8AE02D0C0
:1020B000E73402D0E750AD5D02E2A19A2ED069A6C6
:1020C0002BD0DF6A040EDF5C27E268A625D06CCF38
:1020D000CEF00001CE51780BE842E842E842CF6FE3
:1020E0006896CEB504D0CF511FEC16F003D0CF5177
:1020F00024EC16F0EA22EF70CF5102E1E2DA0AD0C6
:10210000000EE66EE66ACE0EE66E000EE66E720E0B
:10211000FEEC14F0DF2AD6D7A19AE55211EF15F0A4
:10212000D9EC15F0FD0EDBA403D0E66A8FEC15F0B8
:10213000FD0EDBA204D0010EE66E8FEC15F0FE0E54
:10214000DB50156A700F146E0F0E81EC15F002EC67
:1021500015F0FD0EDBCFEFFF020EE15C02E2E16A5B
:10216000E552E16E11EF15F0D9EC15F0FD0EDB50E4
:1021700003E0F9EC14F002D028EC15F06DEC15F04A
:10218000D9CFE9FFDACFEAFFEE50ED1003E1F36AB1
:10219000F46A28D002EC15F033EC16F0FB0EDBCF1E
:1021A000EEFFFC0EDBCFEDFF02EC15F0EE52FA0E67
:1021B000DBCFEFFF400E29EC16F0880E38EC16F05E
:1021C000FD0EDB5003E0F9EC14F002D028EC15F022
:1021D000EA22EF74DECF14F0DDCF15F014C0F3FF68
:1021E00015C0F4FF020EE15C02E2E16AE552E16E25
:1021F00011EF15F0D9EC15F0FE0EDB5003E1E7EC22
:1022000015F009D02DEC15F0C7EC15F02DEC15F0FC
:10221000010FC7EC15F0020EE15C02E2E16AE55243
:10222000E16E11EF15F00CEC15F06DA816D0F8EC7E
:1022300015F0400EEE16EE6AEE6AEE6AF8EC15F056
:10224000EE7CD7DBEA22EF74400E146EF8EC15F04A
:102250001450EF16F8EC15F0EF7CE3D36D6A696A61
:102260000001AD6B12000001AD510FE16D6A696AAA
:102270009FEC15F0D08EA28AA08AF28E6DB602D0A5
:102280006D86FCD70001010EAD6F12000001D75121
:1022900022E1010ED76FD8511EE1010ED86F020E58
:1022A000BD5D07E1B4DBEE52EF6AB1DBC80EEF6E45
:1022B0001200BD0510E1D06BC0DBEE52080EEF6ED0
:1022C000BCDBD3EC15F0B9DB840EEF6E010ED06FE2
:1022D0008CDB800EEF6E12000001D96BDA6B020E00
:1022E000BD5D06E12DEC16F0ADDBC2EC15F010D0B3
:1022F000C1510401265D0001C2510401275904E2C5
:1023000026C4C1F027C4C2F061D881DB9BDB7FDB30
:10231000C80EEF6E1200D9EC15F0000EDE6E040E42
:10232000DD6E9BDB040DF4CF15F0D9CFE9FFDACFDA
:10233000EAFFF350EE261550ED2264DBEF9EFD0E12
:10234000DB5002E185DB01D054DBEA22DECFEEFF79
:10235000DDCFEDFF57DBEF9C55DB040EE926000EC9
:10236000EA22EF8C020EE15C02E2E16AE552E16EE4
:1023700058D36D980001C0BF0DD0C5AF09D0020E73
:10238000BD6FDA5101E1A8DF0001D86BD76B1200F5
:10239000E7EF15F0040120AF0DD00001010EBD6F75
:1023A000D95101E199DF0001D86BD76BD6510DE10E
:1023B00046EF11F00001020EBD6F17DB840EEF6EC9
:1023C000D86BD76BD65101E161DF120007EC16F034
:1023D000080EDF6E0001C15D000EC2590AE2C1C0E5
:1023E000DFFFBC5102E1010E03D0BC0502E1020E89
:1023F000BC6FDF50156AE850C15DC16F1550C259FE
:10240000C26F05DBEE52DFCFEFFF280ECA6F040E5E
:10241000CB6FC0B10DD0DF5017E0BEC0F6FFBFC01C
:10242000F7FFBE2B000EBF230800F55049DBF3D7A2
:10243000DF500AE0BEC0E9FFBFC0EAFFBE2B000EBE
:10244000BF23EF503DDBF4D7E552EBD2B2DBF5DA38
:10245000EE52EFCFDFFFDFCF14F014500001C65D66
:10246000000EC75902E2C6C0DFFFDF50146E156AC6
:10247000E850C65DC66F1550C759C76F010EDB6ABD
:10248000DF50F36E010EDBCFF4FFF350F45C16E285
:10249000010EDB50EA6A280FE96E040EEA22EF50C3
:1024A000E66EC3C0E9FFC4C0EAFFC32B000EC4231D
:1024B000E552E750EF6E010EDB2AE2D7000ED8801E
:1024C000C655000EC7550DE2C8DBBCDAB6DAEF50D0
:1024D000400B03E157DBC80E02D054DB880EEF6ED1
:1024E00012D083DA840EEF6EC851C91107E005D00F
:1024F000C9C0FAFF0001C851F96EFADF0001C59F9B
:10250000D65101E1C3DE020EE15C02E2E16AE5526E
:10251000E16E87D27CDB0001C08FC3DADF6AF7DAB5
:1025200002E2A5DAFCD76D8CDF6A020EDF5C02E204
:10253000AEDAFBD7010EE66EE66AE66AAF0EE66E2D
:10254000000E5DDB6D9C0001080EB86F040EB96FC4
:10255000000EB06F040EB16FB0C0B2F0B36F22C402
:10256000AEF0AE5102E1100E0BD0010EE66EE66A3F
:10257000AE0EE66E000EE66E010E40DA0001200E91
:10258000AD6FE5524ED2800E0401205D38E10001AE
:10259000C00EC06F04012351030A1AE0010A09E0CA
:1025A000030A2BE10001E40EBE6F3D0EBF6F120E59
:1025B0001ED0DADAA10EF6263E0EB9DA020E0001BE
:1025C000CCDAF5CFC1F0030EC8DAF5CFC2F01200B5
:1025D000030E225D0FE2C8DAA30EF6263E0EA7DA3E
:1025E000BEC0F6FFBFC0F7FF0800F5500001C16F85
:1025F000C26B12000001C06B12000001C06B120020
:10260000D8DA0401286B296B20511F0B020A11E054
:10261000030A0CE0010A1EE10001C08F04012881B9
:102620000001CC0517E10401288314D00001C08FFC
:1026300011D00001C08F040124BF02D0CFDA01D035
:10264000D2DA4BDAD8DA06E0DDD9EF50040B02E03B
:10265000010E286F0001C0AF07D0280EBE6F040E18
:10266000BF6FC081020EC16F020EE15C02E2E16A3F
:10267000E552E16ED6D170A00CD0DFD9EF508008C2
:1026800007E1C5D9EF50840803E1D7D98C0EEF6E6E
:102690007090689A1200698468986D820001010E3A
:1026A000CD6F21DA750EFEEF14F00001CD6B1BDA51
:1026B000740EA4D96D92699468A402D06894FCD772
:1026C0001200A5DA00012D0ED56FFD0ECE1539E1F1
:1026D0007E0ECE15E8407F0B040DF3CFB0F0F4CFA3
:1026E000B1F0000EB027040EB123B0C0B2F0B1C0FB
:1026F000B3F0B275A2D9EF503C0BE842E8420D08A6
:102700001EE1DF6A080EDF5C16E297D9020EE926A9
:10271000000ED0D9EF50E66EDF50EA6A200FE96E66
:10272000040EEA22E552E750EF6E87D99CDAEE2AD2
:10273000EF22DF2AE7D781D936DA0AD807D023D8A3
:1027400005D0FD0ECE15040801E12CD8E55269D163
:102750000001BC6BD66BD96BDA6BD06BBD6B57D9F4
:10276000EF9EB87554D9EF9EB8750CDAEF9EC06B2A
:10277000C16BC26BC56BC66BC76B4ED8B4D9030EA9
:102780003DD9B9EF11F0020E0001BD5D02E126EF67
:1027900012F0BD6BD05104E128D98C0EEF6E1200FF
:1027A000D06B120034DA33D9EF50400B01E0010E48
:1027B000DF6E0001B875080EAD5D08E122C46EFF42
:1027C0006E5002E0100E01D0040EAD6FBD0513E196
:1027D0001ED938D9FBDD020E0001BC5D03E117D91B
:1027E000840E07D0DF5003E112D9C80E02D00FD9F2
:1027F000880EEF6E0FD0C5AF0CD0C851C91107E0DD
:1028000005D0C9C0FAFF0001C851F96EFADF000116
:10281000C59FBD6BE55205D104012051600BE84214
:10282000E842E842E842E842000901E01200215192
:102830000C0A45E00B0A3FE00C0A31E0010A22E0F5
:102840000B0A1EE0020A1CE0030A18E0080A10E066
:10285000010A0CE00F0A08E0030A01E0120000017F
:10286000C08F080EAD6F1200C3EF12F08AEF12F0A6
:102870000001AE0EBE6F000EBF6F0CD000EF13F064
:1028800060EF14F024510001BE6FBF6BAF0EBE2786
:10289000000EBF23C081010EC16FC08F1200000166
:1028A000C08F04012451EA6AAF0FE96E000EEA22DC
:1028B00022C4EFFF120017D9020EFEEF14F012002F
:1028C000ABD8050EE1260401220510E120511F0BB3
:1028D00000090CE10001C08F030E0401215D04E139
:1028E0000001010ECC6F02D00001CC6B040122511B
:1028F00001E074D020511F0B020870E124510F0B2E
:1029000000096CE024510F0B010868E3200E000160
:10291000AD5D64E1C08F040124BF04D05FD9DDD870
:10292000E8D803D060D9D9D8E8D8EA22020EEFCF90
:10293000DBFF21D9010B03E1000EDF9401D0DF841E
:1029400024BF02D04BD901D04ED9EA22DECFEEFF10
:10295000DDCFEDFF030E215D0CE14DD907E024BF73
:1029600002D0C7D801D0C9D8EA22EF82840E80D91C
:1029700035D0DF7440D906E045D8EF9E43D8EF8CC0
:102980001CD902D03FD8EF8CDF74F5D8020B02E1DE
:1029900032D90DE0040124BF02D0ABD801D0ADD8AC
:1029A000EA22EF923B0E146E54D907D902D03B0EA7
:1029B00050D9040124510F0B156A700F146E0F0EBD
:1029C0001522030E14C0DBFF040E15C0DBFF030E3F
:1029D000DBCFE9FF040EDBCFEAFFEF90050EE15CF1
:1029E00002E2E16AE552E16E1CD037D9DCD8C2EFD1
:1029F00015F0FE0EEA6ADB340AEF16F0E66EE66AC0
:102A000018EF16F0DECFE9FFDDCFEAFF1200B8C005
:102A1000E9FFB9C0EAFF1200D9CFE6FFE1CFD9FF45
:102A20001200E552E7CFD9FF120024510F0BE96ED7
:102A3000EA6AD890E936EA361200B0C0E9FFB1C0C0
:102A4000EAFF120010D9280EEE6E040EED6E120091
:102A5000FE0EEA6ADB3411EF16F0FD0EDB50E824BF
:102A6000166EFE0EDB50040DF35016241200DF50DC
:102A7000040DF3CFE9FFF4CFEAFF000EE926040EC0
:102A8000EA22EE6AEE6AEE6AEE6ADF2A1200DF5090
:102A9000DBD8EA22EF6ADF50D2D8EA22EF6ADF2AD7
:102AA0001200010EE66EE66AE66A710EE66E0F0E21
:102AB000FFEF15F0EA22EE50EFCFEAFFE96E1200C9
:102AC000E66ECAC0E9FFCBC0EAFFCA2B000ECB23DB
:102AD000E552E750EF6EDF061200EA22EECFDEFF8E
:102AE000EDCFDDFF1200000EE66EE66AE66EE66AE6
:102AF000120024510F0B1FEF16F024510F0B24EF7F
:102B000016F0152214C0DEFF15C0DDFF1200DF50E5
:102B1000146E156A080E145C000E15581200FE0E95
:102B2000DBCFE6FF8BEC11F0E552E5521200F72205
:102B30000900F5CFBEF00A00F5CFBFF01200160E67
:102B40006F6E9F0E6B6E7B0E696E1200010EE66E4D
:102B5000E66A000EE66EE66A1200F76ABE25F66EB9
:102B6000BF51F722080012002251F66EF76AD89082
:102B7000F636F7361200D950020FE96EDACFEAFFC7
:102B8000EF501200B2C0E9FFB3C0EAFF1200040D1B
:102B9000F3CF14F0F4CF15F0000E1426040EB1DFBD
:102BA000840E38EF16F05FD8200EEE6E040EED6E38
:102BB000120032DF020EE1261200020EE66EE66A15
:102BC000DECFE6FFDDCFE6FF050EFEEF14F00DDFF2
:102BD0008C0EEF6E1CDF840EEF6E120026DFB40E3B
:102BE000E926000E120021DFB80EE926000E1200C1
:102BF00000DF5AEF15F006DFEF50800B1200E66E93
:102C0000FAEC1FF0146E050EE15E1450120004DFA2
:102C1000E6521200FE0BEA36E96EB80EE926000E07
:102C20001200FE0BEA36E96EB40EE926000E120021
:102C30006AEC0DF0146E060EE15E14501200EA6AA2
:102C4000D30FE96E000E1200EA6AD10FE96E000E92
:102C50001200D8DEE850EF16120094DFEE52080E94
:102C6000EF6EC2EF15F0020EE926000EEA22120006
:082C7000C9DEE850EF1212006A
:082C780078EC1BF0FB0EDBCF32
:102C8000F3FFDB06F35000090AE0C6EC1BF0FA0E76
:102C900031EC1CF0F3E1151CF1E1010E01D0000E46
:102CA000A7EF1BF078EC1BF03B0EE12402E3E16898
:102CB000E652E16E010EDB6A020EDB6AF90EDBCF33
:102CC000F6FFFA0EDBCFF7FFFB0EDBCFF8FF0800B5
:102CD000F550DF6EDF5002E1CBEF1AF0250EDF5C1E
:102CE00002E0BEEF1AF0030EDB6A040EDB6A050E8B
:102CF000DB6A060EDB6A070EDB6AE0EC1AF02D0ECB
:102D0000DF5C0CE02B0EDF5C09E0200EDF5C06E0F0
:102D1000230EDF5C03E0300EDF5C1AE1DF50300A87
:102D200014E0130A0FE0030A0AE00B0A05E0060AA2
:102D3000E4E1030EDB80E1D7030EDB82DED7030E76
:102D4000DB84DBD7030EDB86D8D7030EDB88D5D731
:102D50002A0EDF5C1BE1DCEC1AF02AEC1BF010E021
:102D6000030EDB8008680968130EDBCF0DF0140E2C
:102D7000DBCF0EF0B5EC1CF0040E06C0DBFF03D079
:102D8000130E13EC1BF0E0EC1AF00BD0090EDB6A0B
:102D900081EC1BF003E0F5EC1BF0FAD7090E13EC05
:102DA0001BF0030EDBB0DB982E0EDF5C1BE1E0ECCA
:102DB0001AF02A0EDF5C0BE1DCEC1AF02AEC1BF0B7
:102DC00003E1130E65EC1BF0E0EC1AF00BD0090EDA
:102DD000DB6A81EC1BF003E0F5EC1BF0FAD7090E7F
:102DE00065EC1BF0680EDF5C07E1E0EC1AF0680EA2
:102DF000DF5C1DE1030E18D0740EDF5C17E07A0E65
:102E0000DF5C14E0480EDF5C06E0540EDF5C03E09C
:102E10005A0EDF5C02E1020E07D06C0EDF5C03E0AD
:102E20006A0EDF5C04E1010EB8EC1BF0C9DBDF5079
:102E30006E0A01E17FD31E0A01E192D1200A01E16D
:102E40008FD13F0A01E149D11A0A01E146D10D0AA9
:102E500001E143D1200A01E140D13A0A01E13DD12B
:102E6000200A01E13AD1260A01E135D10D0A01E13A
:102E700032D11A0A01E1D9D0200A4AE0300A1FE013
:102E8000460A0EE0250A01E083D3D950F90FE96E16
:102E9000FF0EDA20EA6E010EEE5E000EEE5AEE5ADA
:102EA000C6EC1BF0250EE66E95DB03E1151C01E177
:102EB00069D3C2EC1BF001E26BD3DB2A69D3080EA5
:102EC000DB6A040EDB50010806E2040EDB048AEC28
:102ED0001BF0DB508BDB080EDB5009E0030EDB50F0
:102EE000010B05E172DB01E04DD3080EDB6A64DB08
:102EF000EFCFDFFF3AEC1CF003E1151C01E142D3F8
:102F0000C2EC1BF001E3DB2A60DB01E141D33AD3E1
:102F1000070EDB5002080FE106EC1CF0030ECDECAF
:102F20001BF00E0EEECFDBFF0F0EEECFDBFF100E11
:102F3000EECFDBFF20D0F70EDBCF17F0F80EDBCFA4
:102F400018F0020E175E000E185AF70E17C0DBFFBE
:102F5000F80E18C0DBFF17C0E9FF18C0EAFFBDEC90
:102F60001BF0166A0E0E14C0DBFF0F0E15C0DBFF40
:102F7000100E16C0DBFF0E0EDBCFE6FF0F0EDBCF11
:102F8000E6FF100EDBCFE6FF22EC20F0E552E55223
:102F9000E552130E07C0DBFF140E08C0DBFF060E60
:102FA000DB5005E0130E01EC1CF001E26ADB25ECBE
:102FB0001CF002E2130E37DBE8EC1BF006E0040E17
:102FC00001EC1CF002E2050E2EDB030EDBB005D097
:102FD000FCDA01E0D7D2080EDB6A090EDB6A0E0EBE
:102FE000DBCFF6FF0F0EDBCFF7FF100EDBCFF8FFC6
:102FF0000800F550DF6EDF5014E02BEC1CF011E2FE
:103000003AEC1CF003E1151C01E1BCD2BBDB01E38F
:10301000DB2A090EDB2AD9500E0FE96E000ECBDB3E
:10302000E7D7D3DA01E1B4D2ADD2C6DA110EEECFD2
:10303000DBFF120EEDCFDBFF110EDBCFE6FF120E32
:10304000DBCFE6FF14EC20F0E552E552130EF3CF90
:10305000DBFF140EF4CFDBFF060EDB5004E0130E93
:10306000D0DB01E20EDB25EC1CF002E2130EDBDA12
:10307000AFDB05E0040EC5DB02E2050ED4DA030E79
:10308000DBB005D0A2DA01E07DD2080EDB6A090EC2
:10309000DB6A110EDBCFE9FF120EDBCFEAFFEFCFC9
:1030A000DFFFDF5014E0D7DB12E2E4DB03E1151CA5
:1030B00001E168D267DB01E3DB2A090EDB2A110E8E
:1030C000DB2ADBCFE9FF120EE8E3DB2AE6D77DDA65
:1030D00001E15ED257D2030EDB8E070EDB0410E156
:1030E00095DB040E5ADB0A0EEECFDBFF0B0EEECFA4
:1030F000DBFF0C0EEECFDBFF0D0EEECFDBFF6CD057
:10310000070EDB5003082CE1030EDBAE0DD0B2DA64
:10311000020E76DAEFCF14F0156A166A176A14AE4B
:1031200039D01568166835D0F70EDBCF15F0F80EDC
:10313000DBCF16F0020E155E000E165AF70E15C004
:10314000DBFFF80E16C0DBFF15C0E9FF16C0EAFF73
:10315000EFCF14F00A0E14C0DBFF0B0EDB6A38D081
:10316000070EDB50020809E1030EDBAE04D059DB89
:1031700016AE10D00ED055DB0DD0030EDBAE12D044
:1031800079DA020E3DDAF9DA166A176A15AE02D05C
:1031900016681768E2DA0C0E16C0DBFF0D0E17C0BA
:1031A000DBFF1AD0F70EDBCF16F0F80EDBCF17F0EF
:1031B000020E165E000E175AF70E16C0DBFFF80E51
:1031C00017C0DBFF16C0E9FF17C0EAFFD6DAC5DA81
:1031D0000C0EDB6A0D0EDB6A060EDB5005E1010EFC
:1031E000F36E050EF3CFDBFF150EDB6A160EDB6AFE
:1031F000D950370F146E000EDA20156E390E14C038
:10320000DBFF3A0E15C0DBFF380EDB6A080EDB6A07
:103210000A0EAEDADF50780A12E0200A10E0280A1F
:103220000CE0200A0AE03F0A06E00D0A02E0200A4C
:1032300008E1020E05D0080E03D0080EDF26100E9E
:1032400097DA030EDBBE02D0DB92DB94DB50800BFF
:1032500024E08ADAD890030EEB50000A08E6000E4C
:10326000EE5C000EEE58000EEE58000EEE5815E221
:1032700013DA0B680C680D680E68D5EC20F00A0EA6
:1032800002C0DBFF0B0E03C0DBFF0C0E04C0DBFF34
:103290000D0E05C0DBFF2D0E08D0030EDBA202D001
:1032A0002B0E03D0DBA408D0200EF36E170EF3CF45
:1032B000DBFF150EDB2A02D0170EDB6A050EDB5092
:1032C00003E1B7D901E189D0840E146E430E156E67
:1032D000000E166E070EDBCF17F0186A196A1A6A0D
:1032E00017C00BF018C00CF019C00DF01AC00EF08A
:1032F000D3D90DEC21F014500224F36E15500320A5
:10330000F46E16500420F86EF4CFF7FFF3CFF6FFFB
:103310000800090EF5CFDBFF580EDF5C0FE1610EF0
:10332000F36E090E7BD90AE3200E146E090EDBCF73
:10333000E7FF1450E75E090EE7CFDBFF070EDBCF98
:1033400014F0156A166A176A0FDA14C00BF015C06C
:103350000CF016C00DF017C00EF0EECF06F0EECF59
:1033600007F0EECF08F0EFCF09F00DEC21F009C027
:10337000EDFF08C0EDFF07C0EDFF06C0EFFF390EFF
:10338000DBCFE9FFDB063A0EDBCFEAFF01E2DB062B
:10339000090EDBCFEFFF150EDB2A4BD995E1030EAB
:1033A000DBA61DD06F0EDF5C06E1C1D918E3150E58
:1033B000DB285BDA14D0780EDF5C09E0580EDF5CA6
:1033C00006E0620EDF5C03E0420EDF5C08E1020E05
:1033D000F36E160EF3CFDBFF02D0150EDB6A030E81
:1033E000DB50100B0EE0040EDBCF14F0050EDB50AB
:1033F000D880145406E2060EDB5003E1040EDB50C5
:1034000034DA95D90AE2050EDBCFE7FF150EDB5063
:10341000E75E050EE7CFDBFF02D0050EDB6A040E88
:10342000DBCF14F0160E45D9D880145414E2160ED2
:10343000DBCFE6FF150EDBCFE6FF040EDBCFE6FFAA
:10344000050EDB50E552E75CE552D880E754E552C3
:10345000D880E7545FD9030EDB50010B0BE1080E57
:10346000DB5008E0B2D801E08DD0080EDB50BED8AA
:10347000080EDB6A170EDB5007E088D9170EF1D96A
:1034800003E1151C01E17ED0160EDB5016E07ED95B
:10349000300EE66E9FD802E1151C74E077D9DFCFBD
:1034A000E6FF93EC20F0E552E552E552F4CF15F03B
:1034B0000001F31C02E1151C65E0050EDBCF14F0E2
:1034C000160EDB50D880145409E2050EDBCFE7FF5F
:1034D000160EDB50E75E050EE7CFDBFF300EE66E23
:1034E000050ECBD94FE1390EDB2ADBCFE9FF3A0ECF
:1034F00001E3DB2ADBCFEAFF090EEFCFDBFFDB5076
:103500000EE044D9090EADD902E1151C3BE0390E9D
:10351000DB2ADBCFE9FF3A0EEDE3DB2AEBD755D808
:1035200031E1160EDBCFE6FF080EC3D8E552E724E3
:103530005DD82ED0070EDB50030A1CE0010A14E010
:10354000030A07E07BD9DBCFEEFF020EDBCFEDFFF6
:103550001FD0F5D8196A17AE02D0186819682CD890
:10356000BCD819C0EEFF14D0EAD817BE186824D80A
:10357000B4D80ED063D9DBCFEFFF0AD07BD905E1F9
:10358000151C03E1F368F46810D0FCD801E3DB2AD2
:1035900079D967EF16F0010EDBCF14F0020EDBCF06
:1035A00015F014C0F3FF15C0F4FF3B0EE15C02E21E
:1035B000E16AE552E16ECBD029D9020ECDEF1BF0C6
:1035C00061D90800F550DF6E1200200EE66E080E7D
:1035D0003DEF1CF093EC20F0E552E552E552F3CFBD
:1035E00014F0F4CF15F00001F31C1200146E156AEC
:1035F000D950010F4DD91450EE261550ED2212006E
:10360000185E000E195AF70E18C0DBFFF80E19C02D
:10361000DBFF18C0E9FF19C0EAFF1200DBCFF4FF9F
:10362000F350F45C1200DB50E76E040EE7CFDBFFD3
:1036300012000A0EDBCF14F00B0EDBCF15F00C0ED0
:10364000DBCF16F00D0EDBCF17F01450151016104F
:1036500017101200130EEECFDBFF140EEDCFDBFFC1
:10366000130EDBCF14F0140EDBCF15F00001800E2B
:1036700015141200F70EDBCF18F0F80EDBCF19F09F
:103680001200050EDB50E66ED950130F01D9E5523A
:10369000E750EE6EED6A12000A0EDBCF06F00B0E5D
:1036A000DBCF07F00C0EDBCF08F00D0EDBCF09F0FF
:1036B0001200DBCFE6FF150EDBCFE6FF050EDB5079
:1036C000E552E724E552E7241200DB50CED8010E84
:1036D000F36E060EF3CFDBFF1200EE50EFCFEAFFE2
:1036E000E96E16C0EEFF17C0EEFF18C0EEFF120025
:1036F000D9CFE6FFDACFE6FFE1CFD9FFE2CFDAFF9D
:103700001200DFCFE6FFE66A6BEC21F0E552E552EE
:10371000F3501200E76E080EE7CFDBFF1200EECF8A
:1037200014F0EECF15F0EFCF16F0176A1200050E69
:10373000DBCF14F0150EDB50D88014541200010EAC
:10374000DBCF16F0020EDBCF17F0186A1200E5523D
:10375000E5CFDAFFE7CFD9FF12000A0E14C0DBFF76
:103760000B0E15C0DBFF1200D9500A0F48EF1CF0FA
:10377000F36E070EF3CFDBFF1200EECF14F0EFCFA6
:1037800015F01200010EDB2A020E1200FC0EDBCF38
:10379000E6FFFD0EDBCFE6FF1200145E000E155AA9
:1037A000F70E14C0DBFFF80E15C0DBFF14C0E9FFF5
:1037B00015C0EAFF1200DA20EA6EEF2AEECFF6FF1C
:1037C000000EEF22EECFF7FFEF22EECFF8FF120050
:1037D000040EDBCFE6FF130EDB50E552E75C9ADF09
:1037E000DB5004DF060EDB501200090EDB500A0D21
:1037F000F350DF24D00FE76E090EE7CFDBFFE0EFD9
:103800001AF0DB50F36E050E0EEF1BF0F70EDBCF58
:1038100014F0F80EDBCF15F01200DFCFE6FFEAEF71
:103820001AF028DF030EECDE8FEF1BF03CEC16F0F5
:10383000E552E552E552E55200091200BDDEEE50B8
:10384000EFCFEAFFE96E010E1200130EDB50F36EAC
:10385000040E0EEF1BF0040EDB50F36E090E0EEF9C
:103860001BF0DBCFE6FFEAEF1AF0E76E050EE7CFBD
:10387000DBFF12008BDF0DEF1CF0DBCFE6FF86DFF6
:1038800016EF1CF0D950F90FE96EFF0EDBEF1BF0BD
:0A389000E96E000EDA20EA6E120065
:06389A00019E08D0019E12
:1038A00009AE05D0086C091EE86A0922018E09C01C
:1038B00003F008C002F0136A126A8E0E046E056AE5
:1038C00025EF1DF0016A61EC1DF079EC1DF001B6E9
:1038D00009EF1DF001A205D001BA09EF1DF010EFAC
:1038E0001DF001BA1CEF1DF001A005D001B809EFD1
:1038F0001DF01CEF1DF001B810EF1DF0056A7F0EE2
:103900000A24046EE86A05220F50045EE86A055A2C
:103910001A0E106E0A6A126A136A026A036A0C505F
:10392000075E0D50085A0E50095A000E0A5A09E750
:103930000C5007260D5008220E500922000E0A22B4
:1039400001D0128AD8900736083609360A36D89040
:103950001236133602360336102EE1D709500810FE
:103960000710D8A4128A25EF1DF009C013F008C073
:1039700012F008500D02F4CF07F0F3CF06F0095013
:103980000E02F4CF09F0F3CF08F00D02F350072632
:10399000F4500822E86A092212500E02F35007265A
:1039A000F4500822E86A09220EAEDBEF1CF0125038
:1039B000085E1350095A13AE000C0D50085E0E50ED
:1039C000095A000C016A61EC1DF001B6ECEF1CF025
:1039D00001A20AD001B403D07F0E096E19D0800E67
:1039E000096E16D0096A14D001B0FCD7870E0A60A0
:1039F000F1D77E0E0A64F6D7860E0A5C04E0D890F2
:103A000009320A2AF9D701A403D0096C09AEEAD712
:103A100012007F0E0A6EFF0E096E086E076E12000E
:103A20007F0E01BEFF0E0A6E02D07F0E0A6E800E60
:103A3000096E086A076AF3D701AE04D0800E0A6ED9
:103A4000096AF7D70A6A096AF4D7035002101310FB
:103A50001210F8E005BEF0D703BE0CD004500510DC
:103A6000EBE0D89012361336023603360406D8A09F
:103A70000506F2D70550D4E10428D2E012AE11D0E9
:103A80007F0E121402E113A00CD0132AE86A02225E
:103A9000032207E3D880033202321332042A0428B7
:103AA000BFE00450C9E013C007F002C008F00334BF
:103AB000096E04300A6E09320A9E01BE0A8E0FEFAB
:103AC0001DF009360A3602E30184017E06E1018019
:103AD0000A6A096A086A076A12000A2803E0D8809D
:103AE00009321200D890093202E1018212000186E7
:103AF00012000E360F3602E3018C017E06E10188CA
:103B00000F6A0E6A0D6A0C6A12000F2803E0D88053
:0E3B10000E321200D8900E32EAE1018A120045
:023B1E00E6D8E7
:103B20002F0EDF6E0001EE6B938A819A939A3A0E04
:103B3000E66EA9EC21F0E552938A140EE66EA9EC2C
:103B400021F0E5528150200B01E0010E0001EC6FE5
:103B50008150200B01E0010EED6FE85002E1010EF3
:103B600001D0070EEE6FEC0503E1020EEE2702D046
:103B7000070EEE6F020EB5D8BFD0B8D8080EDF6EB4
:103B8000DFCF14F0000EE76E1418E8AE02D0143444
:103B900003D0E750D88014541DE2FE0EDB50010B19
:103BA0000001EF6F819A939A040E9BD80001EF51A8
:103BB000E8B0938AE8A0939A320E93D8938A020EC3
:103BC00090D8FE0EDB407F0BE76EFE0EE7CFDBFFEB
:103BD000DF06D6D7020E85D88FD0D9CFE6FFE1CF4A
:103BE000D9FF020EE126080EDF6E010EDB6ADFCF81
:103BF00014F0000EE76E1418E8AE02D0143403D0AF
:103C0000E750D880145424E2819A939A010E69D81F
:103C1000938A040E66D88150200B01E0010E00014A
:103C2000EF6F010EDB407F0BE76E010EE7CFDBFF8E
:103C3000EF050AE1800E146E010EDBCFE7FF145092
:103C4000E726010EE7CFDBFF320E4BD8DF06CFD7DA
:103C5000020E47D8010EDB50146E020EE15C02E248
:103C6000E16AE552E16E1450E552E7CFD9FF120048
:103C70003DD8550E4FD8DF6ADFCF14F0080EE76E3F
:103C80001418E8AE02D0E73402D0E750145C0AE220
:103C9000DFCF14F0156A14BE156833D8EF503AD848
:103CA000DF2AEAD729D022D8330E34D8DF6ADFCF13
:103CB00014F0080EE76E1418E8AE02D0E73402D014
:103CC000E750145C0DE289DFE66EDFCF14F0156A71
:103CD00014BE156816D8E552E750EF6EDF2AE7D715
:103CE0000BD0E66EB7EC21F0E5521200D9CFE6FF1B
:103CF000E1CFD9FFE6521200E552E552E7CFD9FFF6
:103D00001200FD0EDB501424E96EFE0EDB50152070
:0C3D1000EA6E1200E66E31DFE552120090
:043D1C00040120512D
:103D20001F0B010801E01200245101E01200060EF1
:103D3000215D1EE12351230A1BE0010A0CE0030A66
:103D400017E10001AE0514E10001080EBE6F3E0E42
:103D5000BF6F090E09D00001AE050AE10001850E12
:103D6000BE6F3E0EBF6F1C0EC16FC26BC00EC06F28
:103D700004012051600BE842E842E842E842E84290
:103D8000010801E0120021510B0A26E0080A19E09F
:103D9000090A11E0080A05E00B0A23E0080A21E0FD
:103DA00012000001F00EBE6F000EBF6F010EC16F5A
:103DB000C26BC10E0FD00001800EC06F23C4F0F0A3
:103DC00012000001F10EBE6F000EBF6F010EC16F39
:103DD000C26B810EC06F12000001800EC06F22C442
:043DE000F1F01200EC
:0C3DE4001201000200000008D8043F009B
:103DF00002000102000109022900010100C032098C
:103E00000400000203000000092111010001221C2E
:103E1000000705810340000107050103400001047C
:103E200003090434034D006900630072006F0063EE
:103E3000006800690070002000540065006300689D
:103E4000006E006F006C006F006700790020004971
:103E5000006E0063002E002E03530069006D007099
:103E6000006C006500200048004900440020004428
:103E7000006500760069006300650020004400656D
:103E8000006D006F000600FF0901A1011901294022
:103E900015012540750895408100190129409100C0
:093EA000C0F63D1F3E233E573ED3
:063EAA00D9CFE6FFDACFDC
:103EB000E6FFE1CFD9FFE2CFDAFFE652E652E65263
:103EC000E652D950F90F146EFF0EDA20156E020E6D
:103ED00014C0DBFF030E15C0DBFF020EDBCFE6FFD5
:103EE000030EDBCFE6FFF90EDBCFE6FFFA0EDBCFEA
:103EF000E6FFFB0EDBCFE6FFD950FC0FE66EFF0EB0
:103F0000DA20E66E52EC16F0146E070EE15C02E267
:103F1000E16AE552E16E1450F3CFDEFFF4CFDDFF2E
:103F2000FC0EDBCFE9FFFD0EDBCFEAFFEF6ADECF51
:103F300014F0DDCF15F014C0F3FF15C0F4FF040E2C
:103F4000E15C02E2E16AE552E16EE552E5CFDAFFBB
:063F5000E7CFD9FF1200CB
:0A3F56002A0EF66E100EF76E000E34
:103F6000F86E00010900F550E06F0900F550E16FAF
:103F700003E1E06701D03DD00900F550DB6F090097
:103F8000F550DC6F0900F550DD6F09000900F550B0
:103F9000E96E0900F550EA6E090009000900F550C4
:103FA000DE6F0900F550DF6F09000900F6CFE2F07F
:103FB000F7CFE3F0F8CFE4F0DBC0F6FFDCC0F7FFAB
:103FC000DDC0F8FF0001DE5302E1DF5307E0090026
:103FD000F550EE6EDE07F8E2DF07F9D7E2C0F6FF34
:103FE000E3C0F7FFE4C0F8FF0001E007000EE15B6B
:043FF000BFD7120025
:0C3FF400FE0EE3CFE9FFFF0EE3CFEAFF73
:10400000E9CFF3FFEACFF4FFFB0EE35003E1FC0E30
:10401000E35009E0FB0EE30602E2FC0EE306FD0EB0
:10402000E350EE6EF1D71200FE0EE3CFE9FFFF0E74
:10403000E3CFEAFFF36AF46AEE5203E0F34AF42AAC
:10404000FBD71200FF0EE3CFF8FFE552FF0EE3CFE0
:10405000F7FFE552FF0EE3CFF6FFE552E66AE66AA8
:10406000E66A0900F55209E0FD0EE32A05E1FE0EBD
:10407000E32A02E1FF0EE32AF4D7FD0EE3CF07F0B7
:0E408000FE0EE3CF08F0FF0EE3CF09F01200B2
:02408E00D9CF88
:10409000E6FFDACFE6FFE1CFD9FFE2CFDAFFE65263
:1040A000E652E652E652D950FB0F146EFF0EDA20AC
:1040B000156E14C0DEFFDD6EDECFE6FFDDCFE6FF5E
:1040C000FB0EDBCFE6FFFC0EDBCFE6FFFD0EDBCF0A
:1040D000E6FFF2C0E6FFF3C0E6FF52EC16F0146E06
:1040E000070EE15C02E2E16AE552E16E1450020E55
:1040F000F3CFDBFF030EF4CFDBFF020EDBCF14F0B8
:10410000030EDBCF15F014C0F3FF15C0F4FF040E4F
:10411000E15C02E2E16AE552E16EE552E5CFDAFFE9
:06412000E7CFD9FF1200F9
:0A412600D9CFE6FFDACFE6FFE1CFC4
:10413000D9FFE2CFDAFFFB0EDBCF14F0FC0EDBCFB2
:1041400015F00001800E15141AE1FB0EDBCFE9FF1C
:10415000FC0EDBCFEAFFEECFF3FFEDCFF4FFEE2A4C
:10416000000EEF22F3CFE9FFF4CFEAFFFD0EDBCF25
:10417000EFFFEF50156AF36E15C0F4FF10D0FB0E81
:10418000DB50FE0806E1FD0EDBCFE6FF9BEC21F0E5
:1041900005D0FD0EDBCFE6FFCBEC21F0E552E5527A
:0A41A000E5CFDAFFE7CFD9FF1200E8
:0641AA0006500B02F3CFEA
:1041B00002F0F4CF03F00C02F3500326000EF420BB
:1041C000046E06500D02F3500426000EF420056E16
:1041D00006500E02F350052607500B02F35003263B
:1041E000F4500422000E052207500C02F35004265E
:1041F000F450052207500D02F350052608500B021B
:10420000F3500426F450052208500C02F350052602
:0A42100009500B02F35005261200BE
:06421A00056A046A036A54
:10422000026A200EE76ED890063607360836093641
:1042300002360336043605360B50025C0C50035828
:104240000D5004580E50055809E30B50025E0C50F7
:10425000035A0D50045A0E50055A062AE72EE4D789
:0242600012004A
:0E42620053544152542050524F544F20424F5B
:104270004152442021210053656E736F72202564E2
:104280003A202573B043202C2074656D70657261EF
:10429000747572655F726177203D202564290A0D6F
:0942A0000025642E253032640073
:0642AA00056A046A100E13
:1042B000E76ED89008360936043605360D50045C92
:1042C0000E50055805E30D50045E0E50055A082A9D
:0642D000E72EF0D71200FA
:0A42D600F36AF46AFF0EE124E96EBA
:1042E000FF0EE220EA6EED6607D02F0EEF6404D0D9
:0A42F0003A0EEF6001D0F32A12002D
:0642FA00FF0EE3501E6EF2
:10430000480E01D04C0EE76EE72EFED7E76AE72E87
:0A431000FED71E2EF7D700001200A2
:06431A0013EE00F023EE9B
:1043200000F0F86A019CABEC1FF0CCEC21F08BECB8
:064330000BF0FBD71200A8
:0A433600FF0EE350ACBA04D0AF6AEA
:10434000AB8EAC8A949CACA2FED7AD6EF36EF46AD1
:02435000120059
:0E435200FF0EE3501E6E1B0E00D001D0200E99
:0E436000E76EE72EFED71E2EFAD700D0120011
:02436E00FF0E40
:10437000E350E84E1200000000D000D000D0E82E3C
:04438000FAD7120056
:0C4384003031323334353637383961625D
:05439000636465660096
:02439600120013
:02439800120011
:02439A00FEFF24
:04439C00000000001D
:0343A00001000019
:020000040030CA
:0100000024DB
:010001000EF0
:010002003FBE
:010003001EDE
:010005008179
:010006008178
:010008000FE8
:01000900C036
:01000A000FE6
:01000B00E014
:01000C000FE4
:01000D0040B2
:00000001FF
