:100000008317743084007E300A128A110D200A1280
:100010008A1183010A128A11152864008001840A5A
:1000200004060319003404060E28031000300318D8
:1000300001308700C030831603138700031083123A
:1000400003130030031801308600F03083160313C9
:10005000860081138717071781309900903083122B
:1000600003139800243083160313980088308312FA
:100070000313A2000630A3000A128A1114270A12E1
:100080008A11713083120313A2000630A3000A12F2
:100090008A1114270A128A11543083120313A20002
:1000A0000630A3000A128A1114270A128A1133306B
:1000B00083120313A2000630A3000A128A11142728
:1000C0000A128A11B63083120313A2000530A3006E
:1000D0000A128A1114270A128A11E23083120313BA
:1000E000A2000530A3000A128A1114270A128A11ED
:1000F00083120313061A7D287E28BF2950300A1266
:100100008A11BF230A128A1183120313061A89283F
:100110008A28BF290A128A111F240A128A118312FF
:100120000313A0002008FC007C08013A031D992855
:100130009A28A4280C30A2000630A3000A128A11C3
:1001400014270A128A11BF2974300A128A11F32364
:100150000A128A11FC3083120313A2000630A30096
:100160000A128A1114270A128A1103100030031888
:100170000130FC00BB287C08743E84001030000273
:100180000318C328C428DA287C08743E84000008B9
:1001900083120313A000A1012008A4002108A500D8
:1001A0000730A2000730A3000A128A1114270A128E
:1001B0008A11EF287C08743E840000088312031320
:1001C000A000A1012008A4002108A5000D30A20074
:1001D0000730A3000A128A1114270A128A11073065
:1001E0007C020318F428F528002912308312031327
:1001F000A2000730A3000A128A1114270A128A11DA
:10020000013083120313A0002008FC0708307C0291
:10021000031C0B290C29BB280930A2000630A300BF
:100220000A128A1114270A128A11A0291430831283
:100230000313A2000530A3000A128A1114270A1220
:100240008A11B429833083120313A2000530A3005E
:100250000A128A1114270A128A11B429E130831272
:100260000313A2000630A3000A128A1114270A12EF
:100270008A11B429D13083120313A2000630A300DF
:100280000A128A1114270A128A11B429AF30831274
:100290000313A2000630A3000A128A1114270A12BF
:1002A0008A11B4299E3083120313A2000630A300E2
:1002B0000A128A1114270A128A11B429F130831202
:1002C0000313A2000630A3000A128A1114270A128F
:1002D0008A111030740203186E296F29822974085C
:1002E00083120313A000A1012008A4002108A50087
:1002F0000730A2000730A3000A128A1114270A123D
:100300008A119429740883120313A000A101200804
:10031000A4002108A5000D30A2000730A3000A1296
:100320008A1114270A128A114F3083120313A20074
:100330000530A3000A128A1114270A128A11B4295F
:100340007408063A03192E290E3A03193A29023A7B
:1003500003194629063A031952291C3A031922297E
:10036000383A031916295E29093083120313A200B3
:100370000630A3000A128A1114270A128A1178285B
:060380000A128A11002898
:10076A00B100B82BB82B0C1EBB2BBC2BB72B3108F6
:10077A0099000800A2000430A300FA300000FF3EEE
:10078A00031DC32B64000130A302031DCD2BCE2B06
:10079A00C22B0130A202031DD32BD42BC02B08007D
:1007AA00A900871283160313871201300000FF3E47
:1007BA00031DDB2B831203132908013A031DE62BC1
:1007CA00E72BEA2B83160313871664300000FF3EDB
:1007DA00031DEB2B8316031387160800A2000A12C7
:1007EA008A111F240A128A1133300A128A114B24E1
:1007FA000A128A11031083120313003003180130FE
:10080A00A300072C0A128A117B240A128A11831266
:10081A000313A4002308220784002408800001305F
:10082A00A4002408A30708302302031C1D2C1E2C35
:10083A00072C0800831603138716831203138712E3
:10084A00831603138712FA300000FF3E031D292C7A
:10085A00FA300000FF3E031D2E2C8716643000007C
:10086A00FF3E031D342C003083120313871A013014
:10087A00A500E6300000FF3E031D3F2CC8300000F3
:10088A00FF3E031D442C25084A2C0800831203133B
:10089A00A5000310003003180130A700542C2508C6
:1008AA00A800270A5A2C0310A80CFF3E031D582C37
:1008BA002808A6000130A8002808A60526080A125A
:1008CA008A11D5230A128A11013083120313A80050
:1008DA002808A70708302702031C742C752C542CEF
:1008EA0064300000FF3E031D762C08000310003020
:1008FA0003180130A5000310003003180130A600C8
:10090A00862C0A128A11E8270A128A11003A031958
:10091A008F2C902C9F2C013083120313A700260AD8
:10092A00982C0310A70DFF3E031D962C2708A8003C
:10093A002808A50478300000FF3E031DA02C0130D2
:10094A0083120313A7002708A60708302602031CF0
:10095A00AF2CB02C862C2508B22C08000030B6002B
:10096A000030B700340833040319BC2CBD2CF82C12
:10097A00B5010314B50DCC2C01300310B30DB40D21
:10098A00FF3E031DC22C0130B8003808B507B41F5A
:10099A00CF2CD02CC12C01300310B60DB70DFF3E61
:1009AA00031DD12C34083202031DDD2C3308310219
:1009BA00031CE02CE12CEB2C3308B1023408031C95
:1009CA00B203B2020130B6040030B704013003109A
:1009DA00B40CB30CFF3E031DEC2C0130B502031D11
:1009EA00F72CF82CD02C3708B201B2073608B1011F
:1009FA00B107FF2C0800FE00FE1F082D83137E1886
:100A0A008317000808008A000408820000340134B1
:100A1A0000341034003400340134003410345334B8
:100A2A006F346E346434613420346434693420346D
:100A3A00743465346D3470346534723461347434AA
:100A4A007534723461342034443453343134383494
:100A5A0042343234303420342834723469347334B2
:100A6A006F346C3475347A3469346F346E34653467
:100A7A002034703472346F346734723461346D34B4
:100A8A006D346134623469346C34653429340A341F
:100A9A000D340034203476346534643469342034B7
:100AAA00733475343A34203468347434743470349A
:100ABA003A342F342F346F347734663473342E3407
:100ACA0073346F34753472346334653466346F3416
:100ADA007234673465342E346E34653474342F348A
:100AEA00663461346D3469346C3479342E34683444
:100AFA0074346D346C340A340D34003453346F3426
:100B0A006E34643461342034643469342034743487
:100B1A0065346D34703465347234613474347534C8
:100B2A0072346134203444345334313438345334D5
:100B3A0032343034203428347234693473346F34A4
:100B4A006C3475347A3469346F346E3465342034D5
:100B5A006634693473347334613429340A340D3495
:100B6A00003443346F346C346C3465346734613424
:100B7A00203475346E34203473346F346C346F34EB
:100B8A00203464346934733470346F3473346934A0
:100B9A007434693476346F342034313457346934D8
:100BAA00723465342034733475346C3420346234CE
:100BBA00753473340A340D34003465342034703497
:100BCA00723465346D3469342034423454343134E7
:100BDA00203470346534723420346F34743474348D
:100BEA0065346E34653472346E3465342034693455
:100BFA006C34203452344F344D34203463346F34DF
:100C0A00643465340A340D340A340D3400344E34F5
:100C1A0065347334733475346E342034643469340F
:100C2A00733470346F347334693474346934763499
:100C3A006F34203431345734693472346534203493
:100C4A0063346F346C346C346534673461347434AF
:100C5A006F340A340D340A340D3400342D342D34F3
:100C6A002D342D342D342D342D342D342D342D3472
:100C7A002D342D342D342D342D342D342D342D3462
:100C8A002D342D342D342D342D342D342D342D3452
:100C9A002D342D342D342D340A340D340034683477
:100CAA007434743470343A342F342F3477347734BC
:100CBA0077342E3473346534743474346F34723444
:100CCA0065347A34653472346F342E3463346F3455
:100CDA006D340A340D3400344234793420344234C9
:100CEA00653472346E346134723464346F3420344F
:100CFA00473469346F34763461346E346E3469340F
:100D0A000A340D3400345434653473347434203462
:100D1A006C346934623472346534723469346134DF
:100D2A002034313457346934723465340A340D341A
:100D3A000034693442347534743474346F346E3424
:100D4A002034643461342034363434344B340A3435
:100D5A000D340034693442347534743474346F3465
:100D6A006E342034643461342034313436344B34B4
:100D7A000A340D34003430343134323433343434B8
:100D8A0035343634373438343934413442344334E0
:100D9A004434453446340034693442347534743446
:100DAA0074346F346E342034643461342034313412
:100DBA004B340A340D340034693442347534743493
:100DCA0074346F346E3420346434613420343434EF
:100DDA004B340A340D340034463461346D3469348A
:100DEA0067346C34693461343A3420340034523410
:100DFA004F344D34203463346F34643465343A34B8
:100E0A0020340034303478343034253458340034C3
:100E1A00303478342534583400342C3400342430B7
:100E2A00A800CE2F2908253A03191C2F1D2F242F7D
:100E3A0029080A128A11B5230A128A11CE2F031021
:100E4A00003003180130A6002D2FE62F482FCE2F91
:100E5A002308AF002208AE000130A2070318A30A34
:100E6A002E0884002F080A128A1100250A128A11F4
:100E7A00A900003A03192A2F583A03192B2F203AAE
:100E8A0003192B2F2C2F2808840083130008AA008B
:100E9A00840A0008AB000230AE002E08A807A90198
:100EAA000314A90D582F2908AE002E070C3E840002
:100EBA0005300318013EB0000A128A1100250A12F1
:100ECA008A11AF00840A0319B00A30080A128A117B
:100EDA0000250A128A11B00030082B02031D772F51
:100EEA002F082A0203187A2F7B2F7C2F862F013096
:100EFA00AE002E08A9072908043A031D852F862F5C
:100F0A00582F2908A700C22F2708AE002E070C3E2B
:100F1A00840005300318013EAF000A128A11002529
:100F2A000A128A11B300840A0319AF0A2F080A1297
:100F3A008A1100250A128A11B4002B08B201B207DD
:100F4A002A08B101B1070A128A11B3240A128A11B6
:100F5A008312031331080F39C03E84000630031888
:100F6A00013E0A128A1100250A128A11A9002908CB
:100F7A000A128A11B5230A128A11FF308312031347
:100F8A00AE002E08A7072708FF3A031DCD2FCE2F44
:100F9A00892F831203132308AF002208AE00013001
:100FAA00A2070318A30A2E0884002F080A128A111E
:100FBA0000250A128A11A900A908031DE52FE62FA8
:100FCA00172FE72F080087128316031387120130A1
:100FDA000000FF3E031DED2F87160E300000FF3E76
:100FEA00031DF32F003083120313871A0130FD2FDC
:020FFA000800ED
:02400E00323F3F
:00000001FF
