:020000040000FA
:0600000024EF21F01200C4
:0600080004EF08F01200F5
:060018000CEF08F01200DD
:0610000024EF21F01200B4
:06100800C3EF14F012001A
:061018000EEF15F01200BE
:06102A000300333D00004D
:10103000DC00000001000000CA420000CD000000FA
:1010400007000000C8420000DA00000002000000B3
:101050007DEC0EF0A09A6A6A686A706AC7EC0DF0BF
:1010600015EC0EF0DF6AFDEC0DF003E2ADEC0DF0D7
:10107000FAD76D8C6E6A6D986D9C68A607D06896DD
:101080000001A86BAD6BAE6BAF6BF7D70001010E23
:10109000BF6FC06FC16BC26BB56BDF6A020EDF5CE6
:1010A00011E2EA6ADF3480EC0EF0EA22EE6AED6AC1
:1010B000EA6ADF3487EC0EF0EA22EE6AED6ABDECF4
:1010C0000DF0ECD70001080EA06F040EA16F160EF4
:1010D000706E0401200E026F040E036F080E016F84
:1010E000840E006F0001966B956BE55287EF0DF053
:1010F0007DEC0EF00001950507E16DBA05D0686A38
:1011000069806988020E956F6850040B05E069508C
:10111000040B02E068943FDB6DB245D06850010BD0
:1011200009E06950010B06E093DFA08A0001040E7C
:10113000956F68906850100B05E06950100B02E045
:1011400020DB689868AC0FD069AC05D01CEC0EF0C1
:10115000730E74EC0DF0689C0001BD5101E0BD07F9
:10116000BD5101E109D96850200B04E06950200B02
:1011700001E0F7DA6850020B0BE06950020B08E05F
:101180001CEC0EF0E6687F0EE66E8EEC0EF06A6ADE
:10119000040E0001E76E9519E8AE02D0E73402D0E4
:1011A000E750955D02E2A19A2ED069A62BD0DF6AA6
:1011B000040EDF5C27E268A625D06CCFB6F00001F4
:1011C000B651780BE842E842E842B76F6896B6B588
:1011D00004D0B75195EC0EF003D0B7519AEC0EF055
:1011E000EA22EF70B75102E1E2DA0AD0000EE66EB1
:1011F000E66AB60EE66E000EE66E720E74EC0DF048
:10120000DF2AD6D7A19AE55287EF0DF04FEC0EF00A
:10121000FD0EDBA403D0E66A05EC0EF0FD0EDBA2AA
:1012200004D0010EE66E05EC0EF0FE0EDB50156AE2
:10123000700F146E0F0EF7EC0DF078EC0DF0FD0E44
:10124000DBCFEFFF020EE15C02E2E16AE552E16E04
:1012500087EF0DF04FEC0EF0FD0EDB5003E06FEC6E
:101260000DF002D09EEC0DF0E3EC0DF0D9CFE9FFCC
:10127000DACFEAFFEE50ED1003E1F36AF46A28D00A
:1012800078EC0DF0A9EC0EF0FB0EDBCFEEFFFC0EC0
:10129000DBCFEDFF78EC0DF0EE52FA0EDBCFEFFF77
:1012A000400E9FEC0EF0880EAEEC0EF0FD0EDB5003
:1012B00003E06FEC0DF002D09EEC0DF0EA22EF742B
:1012C000DECF14F0DDCF15F014C0F3FF15C0F4FF2E
:1012D000020EE15C02E2E16AE552E16E87EF0DF099
:1012E0004FEC0EF0FE0EDB5003E15DEC0EF009D08A
:1012F000A3EC0DF03DEC0EF0A3EC0DF0010F3DEC76
:101300000EF0020EE15C02E2E16AE552E16E87EF67
:101310000DF082EC0DF06DA816D06EEC0EF0400EC4
:10132000EE16EE6AEE6AEE6A6EEC0EF0EE7CD7DB3D
:10133000EA22EF74400E146E6EEC0EF01450EF16AD
:101340006EEC0EF0EF7CE3D36D6A696A0001956B79
:101350001200000195510FE16D6A696A15EC0EF0FB
:10136000D08EA28AA08AF28E6DB602D06D86FCD78E
:101370000001010E956F12000001BF5122E1010E24
:10138000BF6FC0511EE1010EC06F020EA55D07E1E7
:10139000B4DBEE52EF6AB1DBC80EEF6E1200A505AA
:1013A00010E1B86BC0DBEE52080EEF6EBCDB49EC0F
:1013B0000EF0B9DB840EEF6E010EB86F8CDB800E81
:1013C000EF6E12000001C16BC26B020EA55D06E15B
:1013D000A3EC0EF0ADDB38EC0EF010D0A9510401F7
:1013E000265D0001AA510401275904E226C4A9F090
:1013F00027C4AAF061D881DB9BDB7FDBC80EEF6ED0
:1014000012004FEC0EF0000EDE6E040EDD6E9BDB64
:10141000040DF4CF15F0D9CFE9FFDACFEAFFF3508E
:10142000EE261550ED2264DBEF9EFD0EDB5002E14F
:1014300085DB01D054DBEA22DECFEEFFDDCFEDFF0E
:1014400057DBEF9C55DB040EE926000EEA22EF8CF9
:10145000020EE15C02E2E16AE552E16E58D36D985A
:101460000001A8BF0DD0ADAF09D0020EA56FC251CB
:1014700001E1A8DF0001C06BBF6B12005DEF0EF051
:10148000040120AF0DD00001010EA56FC15101E193
:1014900099DF0001C06BBF6BBE510DE1BCEF09F0DD
:1014A0000001020EA56F17DB840EEF6EC06BBF6BE1
:1014B000BE5101E161DF12007DEC0EF0080EDF6E1F
:1014C0000001A95D000EAA590AE2A9C0DFFFA451DC
:1014D00002E1010E03D0A40502E1020EA46FDF5069
:1014E000156AE850A95DA96F1550AA59AA6F05DBC6
:1014F000EE52DFCFEFFF280EB26F040EB36FA8B12C
:101500000DD0DF5017E0A6C0F6FFA7C0F7FFA62B4F
:10151000000EA7230800F55049DBF3D7DF500AE09F
:10152000A6C0E9FFA7C0EAFFA62B000EA723EF5035
:101530003DDBF4D7E552EBD2B2DBF5DAEE52EFCF7A
:10154000DFFFDFCF14F014500001AE5D000EAF5985
:1015500002E2AEC0DFFFDF50146E156AE850AE5DE8
:10156000AE6F1550AF59AF6F010EDB6ADF50F36EEF
:10157000010EDBCFF4FFF350F45C16E2010EDB50FA
:10158000EA6A280FE96E040EEA22EF50E66EABC05D
:10159000E9FFACC0EAFFAB2B000EAC23E552E750ED
:1015A000EF6E010EDB2AE2D7000ED880AE55000E9A
:1015B000AF550DE2C8DBBCDAB6DAEF50400B03E101
:1015C00057DBC80E02D054DB880EEF6E12D083DAE0
:1015D000840EEF6EB051B11107E005D0B1C0FAFF33
:1015E0000001B051F96EFADF0001AD9FBE5101E17B
:1015F000C3DE020EE15C02E2E16AE552E16E87D2EF
:101600007CDB0001A88FC3DADF6AF7DA02E2A5DA31
:10161000FCD76D8CDF6A020EDF5C02E2AEDAFBD72C
:10162000010EE66EE66AE66A970EE66E000E5DDB78
:101630006D9C0001080EA06F040EA16F000E986F44
:10164000040E996F98C09AF09B6F22C496F0965141
:1016500002E1100E0BD0010EE66EE66A960EE66E03
:10166000000EE66E010E40DA0001200E956FE55285
:101670004ED2800E0401205D38E10001C00EA86F3B
:1016800004012351030A1AE0010A09E0030A2BE1CD
:1016900000016E0EA66F3C0EA76F120E1ED0DADA96
:1016A0002B0EF6263D0EB9DA020E0001CCDAF5CF8C
:1016B000A9F0030EC8DAF5CFAAF01200030E225DDE
:1016C0000FE2C8DA2D0EF6263D0EA7DAA6C0F6FF09
:1016D000A7C0F7FF0800F5500001A96FAA6B120020
:1016E0000001A86B12000001A86B1200D8DA0401F7
:1016F000286B296B20511F0B020A11E0030A0CE032
:10170000010A1EE10001A88F040128810001B4052F
:1017100017E10401288314D00001A88F11D0000123
:10172000A88F040124BF02D0CFDA01D0D2DA4BDA7D
:10173000D8DA06E0DDD9EF50040B02E0010E286F85
:101740000001A8AF07D0280EA66F040EA76FA881CE
:10175000020EA96F020EE15C02E2E16AE552E16E5F
:10176000D6D170A00CD0DFD9EF50800807E1C5D9E1
:10177000EF50840803E1D7D98C0EEF6E7090689A11
:101780001200698468986D820001010EB56F21DA3C
:10179000750E74EF0DF00001B56B1BDA740EA4D951
:1017A0006D92699468A402D06894FCD71200A5DAFF
:1017B00000012D0EBD6FFD0EB61539E17E0EB6157A
:1017C000E8407F0B040DF3CF98F0F4CF99F0000EB2
:1017D0009827040E992398C09AF099C09BF09A75A7
:1017E000A2D9EF503C0BE842E8420D081EE1DF6A47
:1017F000080EDF5C16E297D9020EE926000ED0D95A
:10180000EF50E66EDF50EA6A200FE96E040EEA221E
:10181000E552E750EF6E87D99CDAEE2AEF22DF2AF5
:10182000E7D781D936DA0AD807D023D805D0FD0EFC
:10183000B615040801E12CD8E55269D10001A46B6A
:10184000BE6BC16BC26BB86BA56B57D9EF9EA07511
:1018500054D9EF9EA0750CDAEF9EA86BA96BAA6B0A
:10186000AD6BAE6BAF6B4ED8B4D9030E3DD92FEF35
:101870000AF0020E0001A55D02E19CEF0AF0A56BE3
:10188000B85104E128D98C0EEF6E1200B86B12002B
:1018900034DA33D9EF50400B01E0010EDF6E000166
:1018A000A075080E955D08E122C46EFF6E5002E03F
:1018B000100E01D0040E956FA50513E11ED938D97D
:1018C000FBDD020E0001A45D03E117D9840E07D0F1
:1018D000DF5003E112D9C80E02D00FD9880EEF6E87
:1018E0000FD0ADAF0CD0B051B11107E005D0B1C0F1
:1018F000FAFF0001B051F96EFADF0001AD9FA56B50
:10190000E55205D104012051600BE842E842E8426B
:10191000E842E842000901E0120021510C0A45E0CA
:101920000B0A3FE00C0A31E0010A22E00B0A1EE03C
:10193000020A1CE0030A18E0080A10E0010A0CE0A1
:101940000F0A08E0030A01E012000001A88F080E48
:10195000956F120039EF0BF000EF0BF00001960EBF
:10196000A66F000EA76F0CD076EF0BF0D6EF0CF041
:1019700024510001A66FA76B970EA627000EA72380
:10198000A881010EA96FA88F12000001A88F040181
:101990002451EA6A970FE96E000EEA2222C4EFFF93
:1019A000120017D9020E74EF0DF01200ABD8050E1D
:1019B000E1260401220510E120511F0B00090CE172
:1019C0000001A88F030E0401215D04E10001010E56
:1019D000B46F02D00001B46B0401225101E074D055
:1019E00020511F0B020870E124510F0B00096CE01D
:1019F00024510F0B010868E3200E0001955D64E19E
:101A0000A88F040124BF04D05FD9DDD8E8D803D063
:101A100060D9D9D8E8D8EA22020EEFCFDBFF21D96E
:101A2000010B03E1000EDF9401D0DF8424BF02D05C
:101A30004BD901D04ED9EA22DECFEEFFDDCFEDFF4C
:101A4000030E215D0CE14DD907E024BF02D0C7D8B9
:101A500001D0C9D8EA22EF82840E80D935D0DF7454
:101A600040D906E045D8EF9E43D8EF8C1CD902D070
:101A70003FD8EF8CDF74F5D8020B02E132D90DE0CC
:101A8000040124BF02D0ABD801D0ADD8EA22EF9236
:101A90003B0E146E54D907D902D03B0E50D9040125
:101AA00024510F0B156A700F146E0F0E1522030EC2
:101AB00014C0DBFF040E15C0DBFF030EDBCFE9FF14
:101AC000040EDBCFEAFFEF90050EE15C02E2E16A73
:101AD000E552E16E1CD037D9DCD838EF0EF0FE0E9F
:101AE000EA6ADB3480EF0EF0E66EE66A8EEF0EF007
:101AF000DECFE9FFDDCFEAFF1200A0C0E9FFA1C001
:101B0000EAFF1200D9CFE6FFE1CFD9FF1200E5527C
:101B1000E7CFD9FF120024510F0BE96EEA6AD89083
:101B2000E936EA36120098C0E9FF99C0EAFF1200D0
:101B300010D9280EEE6E040EED6E1200FE0EEA6A4B
:101B4000DB3487EF0EF0FD0EDB50E824166EFE0E40
:101B5000DB50040DF35016241200DF50040DF3CFB8
:101B6000E9FFF4CFEAFF000EE926040EEA22EE6A4E
:101B7000EE6AEE6AEE6ADF2A1200DF50DBD8EA2254
:101B8000EF6ADF50D2D8EA22EF6ADF2A1200010E94
:101B9000E66EE66AE66A710EE66E0F0E75EF0EF0FF
:101BA000EA22EE50EFCFEAFFE96E1200E66EB2C015
:101BB000E9FFB3C0EAFFB22B000EB323E552E750B2
:101BC000EF6EDF061200EA22EECFDEFFEDCFDDFF83
:101BD0001200000EE66EE66AE66EE66A1200245116
:101BE0000F0B95EF0EF024510F0B9AEF0EF015220C
:101BF00014C0DEFF15C0DDFF1200DF50146E156A41
:101C0000080E145C000E15581200FE0EDBCFE6FF26
:101C100001EC0AF0E552E5521200F7220900F5CF77
:101C2000A6F00A00F5CFA7F01200160E6F6E9F0EF9
:101C30006B6E7B0E696E1200010EE66EE66A000E98
:101C4000E66EE66A1200F76AA625F66EA751F7223D
:101C5000080012002251F66EF76AD890F636F73671
:101C60001200D950020FE96EDACFEAFFEF501200EE
:101C70009AC0E9FF9BC0EAFF1200040DF3CF14F0F5
:101C8000F4CF15F0000E1426040EB1DF840EAEEF73
:101C90000EF05FD8200EEE6E040EED6E120032DFF5
:101CA000020EE1261200020EE66EE66ADECFE6FFC5
:101CB000DDCFE6FF050E74EF0DF00DDF8C0EEF6E3D
:101CC0001CDF840EEF6E120026DF9C0EE926000E4C
:101CD000120021DFA00EE926000E120000DFD0EF77
:101CE0000DF006DFEF50800B1200E66E48EC1FF09F
:101CF000146E050EE15E1450120004DFE65212006D
:101D0000FE0BEA36E96EA00EE926000E1200FE0B6D
:101D1000EA36E96E9C0EE926000E1200F0EC16F091
:101D2000146E060EE15E14501200EA6ABB0FE96EF3
:101D3000000E1200EA6AB90FE96E000E1200D8DE3A
:101D4000E850EF16120094DFEE52080EEF6E38EFF7
:101D50000EF0020EE926000EEA221200C9DEE8505B
:041D6000EF1212006C
:0C1D6400EEEC13F0FB0EDBCFF3FFDB0610
:101D7000F35000090AE03CEC14F0FA0EA7EC14F062
:101D8000F3E1151CF1E1010E01D0000E1DEF14F07E
:101D9000EEEC13F03B0EE12402E3E168E652E16E63
:101DA000010EDB6A020EDB6AF90EDBCFF6FFFA0EDC
:101DB000DBCFF7FFFB0EDBCFF8FF0800F550DF6E3F
:101DC000DF5002E141EF13F0250EDF5C02E034EF5B
:101DD00013F0030EDB6A040EDB6A050EDB6A060EE7
:101DE000DB6A070EDB6A56EC13F02D0EDF5C0CE0AD
:101DF0002B0EDF5C09E0200EDF5C06E0230EDF5CCB
:101E000003E0300EDF5C1AE1DF50300A14E0130A01
:101E10000FE0030A0AE00B0A05E0060AE4E1030EFC
:101E2000DB80E1D7030EDB82DED7030EDB84DBD75A
:101E3000030EDB86D8D7030EDB88D5D72A0EDF5CEE
:101E40001BE152EC13F0A0EC13F010E0030EDB806A
:101E500008680968130EDBCF0DF0140EDBCF0EF00F
:101E60009AEC20F0040E06C0DBFF03D0130E89ECC1
:101E700013F056EC13F00BD0090EDB6AF7EC13F0FD
:101E800003E06BEC14F0FAD7090E89EC13F0030EA3
:101E9000DBB0DB982E0EDF5C1BE156EC13F02A0E54
:101EA000DF5C0BE152EC13F0A0EC13F003E1130E36
:101EB000DBEC13F056EC13F00BD0090EDB6AF7ECF9
:101EC00013F003E06BEC14F0FAD7090EDBEC13F01F
:101ED000680EDF5C07E156EC13F0680EDF5C1DE175
:101EE000030E18D0740EDF5C17E07A0EDF5C14E08E
:101EF000480EDF5C06E0540EDF5C03E05A0EDF5C48
:101F000002E1020E07D06C0EDF5C03E06A0EDF5CBC
:101F100004E1010E2EEC14F0C9DBDF506E0A01E182
:101F20007FD31E0A01E192D1200A01E18FD13F0A3D
:101F300001E149D11A0A01E146D10D0A01E143D17B
:101F4000200A01E140D13A0A01E13DD1200A01E134
:101F50003AD1260A01E135D10D0A01E132D11A0A3E
:101F600001E1D9D0200A4AE0300A1FE0460A0EE01B
:101F7000250A01E083D3D950F90FE96EFF0EDA206C
:101F8000EA6E010EEE5E000EEE5AEE5A3CEC14F0D4
:101F9000250EE66E95DB03E1151C01E169D338ECF3
:101FA00014F001E26BD3DB2A69D3080EDB6A040E5E
:101FB000DB50010806E2040EDB0400EC14F0DB50F9
:101FC0008BDB080EDB5009E0030EDB50010B05E153
:101FD00072DB01E04DD3080EDB6A64DBEFCFDFFF7D
:101FE000B0EC14F003E1151C01E142D338EC14F01D
:101FF00001E3DB2A60DB01E141D33AD3070EDB507A
:1020000002080FE17CEC14F0030E43EC14F00E0E0A
:10201000EECFDBFF0F0EEECFDBFF100EEECFDBFFC0
:1020200020D0F70EDBCF17F0F80EDBCF18F0020E42
:10203000175E000E185AF70E17C0DBFFF80E18C017
:10204000DBFF17C0E9FF18C0EAFF33EC14F0166A93
:102050000E0E14C0DBFF0F0E15C0DBFF100E16C0F6
:10206000DBFF0E0EDBCFE6FF0F0EDBCFE6FF100E21
:10207000DBCFE6FF70EC1FF0E552E552E552130EA0
:1020800007C0DBFF140E08C0DBFF060EDB5005E0C7
:10209000130E77EC14F001E26ADB9BEC14F002E221
:1020A000130E37DB5EEC14F006E0040E77EC14F050
:1020B00002E2050E2EDB030EDBB005D0FCDA01E0F8
:1020C000D7D2080EDB6A090EDB6A0E0EDBCFF6FFF5
:1020D0000F0EDBCFF7FF100EDBCFF8FF0800F55037
:1020E000DF6EDF5014E0A1EC14F011E2B0EC14F05C
:1020F00003E1151C01E1BCD2BBDB01E3DB2A090EC5
:10210000DB2AD9500E0FE96E000ECBDBE7D7D3DA0E
:1021100001E1B4D2ADD2C6DA110EEECFDBFF120E62
:10212000EDCFDBFF110EDBCFE6FF120EDBCFE6FFBC
:1021300062EC1FF0E552E552130EF3CFDBFF140EF5
:10214000F4CFDBFF060EDB5004E0130ED0DB01E220
:102150000EDB9BEC14F002E2130EDBDAAFDB05E0E2
:10216000040EC5DB02E2050ED4DA030EDBB005D0A7
:10217000A2DA01E07DD2080EDB6A090EDB6A110EDD
:10218000DBCFE9FF120EDBCFEAFFEFCFDFFFDF503F
:1021900014E0D7DB12E2E4DB03E1151C01E168D2B5
:1021A00067DB01E3DB2A090EDB2A110EDB2ADBCF1A
:1021B000E9FF120EE8E3DB2AE6D77DDA01E15ED221
:1021C00057D2030EDB8E070EDB0410E195DB040E05
:1021D0005ADB0A0EEECFDBFF0B0EEECFDBFF0C0E51
:1021E000EECFDBFF0D0EEECFDBFF6CD0070EDB502A
:1021F00003082CE1030EDBAE0DD0B2DA020E76DA64
:10220000EFCF14F0156A166A176A14AE39D0156844
:10221000166835D0F70EDBCF15F0F80EDBCF16F0D1
:10222000020E155E000E165AF70E15C0DBFFF80EF3
:1022300016C0DBFF15C0E9FF16C0EAFFEFCF14F0B0
:102240000A0E14C0DBFF0B0EDB6A38D0070EDB5022
:10225000020809E1030EDBAE04D059DB16AE10D044
:102260000ED055DB0DD0030EDBAE12D079DA020EA4
:102270003DDAF9DA166A176A15AE02D016681768E1
:10228000E2DA0C0E16C0DBFF0D0E17C0DBFF1AD012
:10229000F70EDBCF16F0F80EDBCF17F0020E165E4E
:1022A000000E175AF70E16C0DBFFF80E17C0DBFF43
:1022B00016C0E9FF17C0EAFFD6DAC5DA0C0EDB6AF2
:1022C0000D0EDB6A060EDB5005E1010EF36E050E06
:1022D000F3CFDBFF150EDB6A160EDB6AD950370F22
:1022E000146E000EDA20156E390E14C0DBFF3A0EA4
:1022F00015C0DBFF380EDB6A080EDB6A0A0EAEDAA9
:10230000DF50780A12E0200A10E0280A0CE0200AC8
:102310000AE03F0A06E00D0A02E0200A08E1020E88
:1023200005D0080E03D0080EDF26100E97DA030E34
:10233000DBBE02D0DB92DB94DB50800B24E08ADA38
:10234000D890030EEB50000A08E6000EEE5C000E7B
:10235000EE58000EEE58000EEE5815E213DA0B6838
:102360000C680D680E6862EC20F00A0E02C0DBFFFC
:102370000B0E03C0DBFF0C0E04C0DBFF0D0E05C00F
:10238000DBFF2D0E08D0030EDBA202D02B0E03D0F4
:10239000DBA408D0200EF36E170EF3CFDBFF150E73
:1023A000DB2A02D0170EDB6A050EDB5003E1B7D93A
:1023B00001E189D0B20E146E420E156E000E166E3B
:1023C000070EDBCF17F0186A196A1A6A17C00BF0EC
:1023D00018C00CF019C00DF01AC00EF0D3D9C7EC1C
:1023E00020F014500224F36E15500320F46E1650A2
:1023F0000420F86EF4CFF7FFF3CFF6FF0800090EC4
:10240000F5CFDBFF580EDF5C0FE1610EF36E090EB6
:102410007BD90AE3200E146E090EDBCFE7FF1450C0
:10242000E75E090EE7CFDBFF070EDBCF14F0156A7E
:10243000166A176A0FDA14C00BF015C00CF016C03C
:102440000DF017C00EF0EECF06F0EECF07F0EECF96
:1024500008F0EFCF09F0C7EC20F009C0EDFF08C08D
:10246000EDFF07C0EDFF06C0EFFF390EDBCFE9FF40
:10247000DB063A0EDBCFEAFF01E2DB06090EDBCF1B
:10248000EFFF150EDB2A4BD995E1030EDBA61DD01D
:102490006F0EDF5C06E1C1D918E3150EDB285BDAAD
:1024A00014D0780EDF5C09E0580EDF5C06E0620EA7
:1024B000DF5C03E0420EDF5C08E1020EF36E160EF5
:1024C000F3CFDBFF02D0150EDB6A030EDB50100BDF
:1024D0000EE0040EDBCF14F0050EDB50D880145450
:1024E00006E2060EDB5003E1040EDB5034DA95D928
:1024F0000AE2050EDBCFE7FF150EDB50E75E050EA7
:10250000E7CFDBFF02D0050EDB6A040EDBCF14F051
:10251000160E45D9D880145414E2160EDBCFE6FF10
:10252000150EDBCFE6FF040EDBCFE6FF050EDB501A
:10253000E552E75CE552D880E754E552D880E7548D
:102540005FD9030EDB50010B0BE1080EDB5008E0F6
:10255000B2D801E08DD0080EDB50BED8080EDB6A81
:10256000170EDB5007E088D9170EF1D903E1151CCF
:1025700001E17ED0160EDB5016E07ED9300EE66EFD
:102580009FD802E1151C74E077D9DFCFE6FFE1ECBC
:102590001FF0E552E552E552F4CF15F00001F31CAF
:1025A00002E1151C65E0050EDBCF14F0160EDB50C2
:1025B000D880145409E2050EDBCFE7FF160EDB507E
:1025C000E75E050EE7CFDBFF300EE66E050ECBD9DA
:1025D0004FE1390EDB2ADBCFE9FF3A0E01E3DB2ABC
:1025E000DBCFEAFF090EEFCFDBFFDB500EE044D973
:1025F000090EADD902E1151C3BE0390EDB2ADBCF19
:10260000E9FF3A0EEDE3DB2AEBD755D831E1160EA0
:10261000DBCFE6FF080EC3D8E552E7245DD82ED005
:10262000070EDB50030A1CE0010A14E0030A07E06E
:102630007BD9DBCFEEFF020EDBCFEDFF1FD0F5D84D
:10264000196A17AE02D0186819682CD8BCD819C0FE
:10265000EEFF14D0EAD817BE186824D8B4D80ED02C
:1026600063D9DBCFEFFF0AD07BD905E1151C03E16D
:10267000F368F46810D0FCD801E3DB2A79D9DDEFE8
:102680000EF0010EDBCF14F0020EDBCF15F014C0FC
:10269000F3FF15C0F4FF3B0EE15C02E2E16AE55294
:1026A000E16ECBD029D9020E43EF14F061D90800B6
:1026B000F550DF6E1200200EE66E080EB3EF14F038
:1026C000E1EC1FF0E552E552E552F3CF14F0F4CF00
:1026D00015F00001F31C1200146E156AD950010F99
:1026E0004DD91450EE261550ED221200185E000E42
:1026F000195AF70E18C0DBFFF80E19C0DBFF18C01F
:10270000E9FF19C0EAFF1200DBCFF4FFF350F45CDD
:102710001200DB50E76E040EE7CFDBFF12000A0E5B
:10272000DBCF14F00B0EDBCF15F00C0EDBCF16F069
:102730000D0EDBCF17F014501510161017101200E5
:10274000130EEECFDBFF140EEDCFDBFF130EDBCF4E
:1027500014F0140EDBCF15F00001800E15141200DA
:10276000F70EDBCF18F0F80EDBCF19F01200050ED4
:10277000DB50E66ED950130F01D9E552E750EE6EEB
:10278000ED6A12000A0EDBCF06F00B0EDBCF07F06E
:102790000C0EDBCF08F00D0EDBCF09F01200DBCF03
:1027A000E6FF150EDBCFE6FF050EDB50E552E72412
:1027B000E552E7241200DB50CED8010EF36E060E70
:1027C000F3CFDBFF1200EE50EFCFEAFFE96E16C049
:1027D000EEFF17C0EEFF18C0EEFF1200D9CFE6FFE4
:1027E000DACFE6FFE1CFD9FFE2CFDAFF1200DFCF89
:1027F000E6FFE66A02EC21F0E552E552F3501200E2
:10280000E76E080EE7CFDBFF1200EECF14F0EECF3D
:1028100015F0EFCF16F0176A1200050EDBCF14F09B
:10282000150EDB50D88014541200010EDBCF16F0C9
:10283000020EDBCF17F0186A1200E552E5CFDAFF7F
:10284000E7CFD9FF12000A0E14C0DBFF0B0E15C034
:10285000DBFF1200D9500A0FBEEF14F0F36E070E23
:10286000F3CFDBFF1200EECF14F0EFCF15F0120024
:10287000010EDB2A020E1200FC0EDBCFE6FFFD0E7E
:10288000DBCFE6FF1200145E000E155AF70E14C0DF
:10289000DBFFF80E15C0DBFF14C0E9FF15C0EAFF2F
:1028A0001200DA20EA6EEF2AEECFF6FF000EEF22DA
:1028B000EECFF7FFEF22EECFF8FF1200040EDBCFD2
:1028C000E6FF130EDB50E552E75C9ADFDB5004DFD6
:1028D000060EDB501200090EDB500A0DF350DF2408
:1028E000D00FE76E090EE7CFDBFF56EF13F0DB509A
:1028F000F36E050E84EF13F0F70EDBCF14F0F80E35
:10290000DBCF15F01200DFCFE6FF60EF13F028DF1A
:10291000030EECDE05EF14F0B2EC0EF0E552E552DA
:10292000E552E55200091200BDDEEE50EFCFEAFF9E
:10293000E96E010E1200130EDB50F36E040E84EFED
:1029400013F0040EDB50F36E090E84EF13F0DBCFAF
:10295000E6FF60EF13F0E76E050EE7CFDBFF120036
:102960008BDF83EF14F0DBCFE6FF86DF8CEF14F014
:10297000D950F90FE96EFF0E51EF14F0E96E000E19
:06298000DA20EA6E1200ED
:0A298600DACFE4FFE2CFDAFFE9CF79
:10299000E4FFEACFE4FFF6CFE4FFF7CFE4FFF5CFA3
:1029A000E4FFF3CFE4FFF4CFE4FFFACFE4FF00EE5F
:1029B00000F0140EE80403E3EECFE4FFFBD700EED3
:1029C00014F0080EE80403E3EECFE4FFFBD7E65271
:1029D00078EC08F0E55200EE1BF0080EE80403E383
:1029E000E5CFEDFFFBD700EE13F0140EE80403E390
:1029F000E5CFEDFFFBD7E5CFFAFFE5CFF4FFE5CF5D
:102A0000F3FFE5CFF5FFE5CFF7FFE5CFF6FFE5CF25
:102A1000EAFFE5CFE9FFE5CFDAFF1100D8CFE4FF09
:102A2000E0CFE4FFE46EDACFE4FFE652E552E5CF13
:102A3000DAFFE550E5CFE0FFE5CFD8FF100022D860
:102A4000816A936A956A9668A9EC09F0140EE66E9D
:102A5000CCEC1AF0E552010EE66EC4EC1AF0E55229
:102A60008CEC19F0C4DBB80EE66E400E63EC19F086
:102A7000A90EE66E400EEBDBBADBB9DBB8DBB7DBE9
:102A800014D8FED70F0EC11202D828EF08F0F00EAE
:102A90008C16951694169388938A0001CD6BCE6B95
:102AA000CF6BD06B010ED16F1200EBDB060EE1266F
:102AB0000001D15101E020D9200E0001E76E9519E7
:102AC000E8AE02D0E73402D0E750955D01E2EFD0E6
:102AD0006D50020B01E0EBD00001CD51CE1102E1AF
:102AE000000E08D0CDC0E9FFCEC0EAFFEF50800B4A
:102AF00001E0010E000901E0DAD005010051380AB9
:102B000001E189D00F0A33E0B60A1CE0B30A16E0EF
:102B1000030A11E0010A09E0B00A01E0C7D0000190
:102B2000D16B8B908B928B94C1D00001D16B8B8039
:102B30008B828B84BBD00001D16BB8D00001010E19
:102B4000D16FB4D0810E406F81AA03D0010E416FC6
:102B500001D0416B0001CF51D01102E1000E03D032
:102B600084DB01E0010E000901E0A0D092D0000159
:102B7000CF51D01102E1000E03D077DB01E0010E4E
:102B8000000901E093D086EC1CF00501806FE80499
:102B90001EE1820E146E400E156E166A14C0E6FF1A
:102BA000E66E16C0E6FF95EC1FF0E552E552E552E1
:102BB00072DB6F0EE66E400E86DB5C0EE66E400E3C
:102BC00046DB0501370E406F610E416F62D05EDB60
:102BD000CBEC1CF0E552E5528B845DDB460EE66ED5
:102BE000400E71DB53DB22EC1AF0E552E552050191
:102BF000370E406F60C041F561C042F562C043F5D9
:102C000063C044F564C045F565C046F566C047F548
:102C100067C048F53ED00001CF51D01102E1000E4F
:102C200003D023DB01E0010E000940E12FDBC4D912
:102C3000E552E5529ADAF3CFDEFFF4CFDDFFDECFC7
:102C400014F0DDCF15F0D8901532143214C0DEFF29
:102C500015C0DDFF20DBE66ADECFE6FFDDCFE6FF55
:102C60002BEC1AF0E552E552E55288EC19F0DECF74
:102C7000E6FFDDCFE6FF22EC1AF0E552E5528B804D
:102C80000501380E406F90C041F591C042F592C0E9
:102C900043F5400EE66E400EE66E050EE66E010E42
:102CA000E66E09DBF3CFCFF0F4CFD0F0A9DA060E51
:102CB000E15C02E2E16AE552DFD2E3DA020EE126EC
:102CC0009280010EC26E3C0EC06EC08EC282C2B235
:102CD000FED7C350DF6E010EC4CFDBFFDECF14F092
:102CE000DDCF15F014C0F3FF15C0F4FF020EE15C58
:102CF00002E2E16AE552C0D20001D251D31104E1EF
:102D0000100ED26F270ED36FD207000ED35B6DA2C9
:102D100007D0D251D3112EE18B708BB013D027D0B6
:102D20000001955102E18B9022D0950502E18B8044
:102D300009D0020E955D02E18B8019D0040E955DDD
:102D400003E18B908B821200100E955D06E100016D
:102D5000D251D3110FE18B700AD0200E955D0AE19C
:102D60000001D251D31106E18B708BA002D08B925F
:102D700012008B8212001200120012001200D3EF18
:102D80001DF012001E0EE66E010EE66E06EC09F056
:102D9000E552E55200EF19F00001B40520E1000111
:102DA000B5051DE1A09AE8DF6D920001B56B000149
:102DB000100E936F0E0E946F9307000E945B935159
:102DC0009411FAE16D84080E936F070E946F9307C8
:102DD000000E945B93519411FAE16D94A08A120055
:102DE00050DAFD0EDBCF08F0FE0EDBCF09F0050E4A
:102DF000081801E1095036E0E868081802E17F0E82
:102E000009182FE0030E081801E1095028E0020E0E
:102E1000081801E1095021E0010E081801E10950EC
:102E20001AE0740E081801E1095013E0750E081835
:102E300001E109500CE0730E081801E1095005E0AA
:102E4000720E08180FE109500DD097DF0BD093DFF9
:102E500009D092DF07D096DF05D093DF03D08FDF54
:102E600001D08CDF010EE552E7CFD9FF1200D9CF98
:102E7000E6FFE1CFD9FF0B0EE126040073EC1BF057
:102E8000330EE66EA1EC1BF0E552200EE66E14EC5C
:102E900021F0E552090EDB6A090EF36E090EDBCF55
:102EA000F4FFF350F45C2DE2D1EC1BF0E66ED9CFC9
:102EB00014F0DACF15F0090EDB500F011424E96E7F
:102EC000000E1520EA6EE552E750EF6ED9CF14F0F0
:102ED000DACF15F0090EDB500F011424E96E000E55
:102EE0001520EA6EEF50E66E090EDB50EA6A600FBD
:102EF000E96E000EEA22E552E750EF6E090EDB2A7A
:102F0000CBD773EC1BF073EC1BF00B0EE15C02E211
:102F1000E16AE552E16EE552E7CFD9FF1200D9CF61
:102F2000E6FFE1CFD9FF030EE126DF6A010EDB6A7F
:102F3000020EDB6A040073EC1BF0FC0EDBCFE6FF35
:102F4000FD0EDBCFE6FF1CEC1CF0E552E552F50E62
:102F5000E66EA1EC1BF0E552D1EC1BF0E76E020E21
:102F6000E7CFDBFF030EE66E14EC21F0E552050E11
:102F7000E66E14EC21F0E552D1EC1BF0DF6E73EC41
:102F80001BF0A50EE66EA1EC1BF0E552C30EE66E3B
:102F9000A1EC1BF0E55273EC1BF0020EDB1C00D021
:102FA000146E030EE15C02E2E16AE552E16E145038
:102FB000E552E7CFD9FF1200D9CFE6FFE1CFD9FF25
:102FC0000F0EE126080EDB6A090EDB6A0A0EDB6AC9
:102FD0000B0EDB6A0C0EDB6A0D0EDB6A0E0EDB6A73
:102FE000040073EC1BF0FD0EDBCFE6FFFE0EDBCF23
:102FF000E6FF1CEC1CF0E552E552440EE66EA1EC37
:103000001BF0E5521C0EE66E14EC21F0E55273EC59
:103010001BF0FD0EDBCFE6FFFE0EDBCFE6FF1CEC68
:103020001CF0E552E552BE0EE66EA1EC1BF0E55237
:103030000C0EDB6A080EF36E0C0EDBCFF4FFF350C0
:10304000F45C15E2D1EC1BF0E66ED9CF14F0DACFC8
:1030500015F00C0EDB500F011424E96E000E152044
:10306000EA6EE552E750EF6E0C0EDB2AE3D773EC05
:103070001BF0080EDFCFDBFF010EDB50E76E090E01
:10308000E7CFDBFF080EF36E090EDBCFF4FFF35042
:10309000F45C12E32D0EF36E0E0EF3CFDBFF090E80
:1030A000DB1CE76E090EE7CFDBFF080EDB1CE76ECB
:1030B000080EE7CFDBFF05D02B0EF36E0E0EF3CF1D
:1030C000DBFF080EDB500F0BE76E0D0EE7CFDBFFCB
:1030D000080EDB380F0BE76E080EE7CFDBFF0D0E97
:1030E000DB500F0BE76E0D0EE7CFDBFF0D0EDB5055
:1030F0000A0DF350F00BE83AE76E0D0EE7CFDBFF59
:10310000090EDB50100D090EF3CFDBFF080EDBCFED
:10311000E6FF090EDB50E552E710E76E0A0EE7CF37
:10312000DBFF000EF36E0A0EDBCFF4FFF350F45C0E
:103130000DE30A0EDB50320809E30E0EDBCF90F0F0
:103140000A0EDBCF91F00D0EDBCF92F00A0EDB50B2
:1031500000D0146E0F0EE15C02E2E16AE552E16E0E
:103160001450E552E7CFD9FF12008BD8040EE126A8
:10317000020EDB6A030EDB6A51D8440EE66EBAEC2F
:103180001CF06BD86AD869D8E55248D8BE0E89D8E9
:103190009DEC1CF0DF6E010EE66E4EEC21F0E55268
:1031A0009DEC1CF0E76E010EE7CFDBFF86EC1CF018
:1031B000DFCF16F0176A16BE17683AD8010EDB503B
:1031C000000EF3CF16F0176A16BE176831D8020E3C
:1031D000DBCF14F0030EDBCF15F014C0F3FF15C0E6
:1031E000F4FF040EE15C02E2E16AE55245D0E80E2C
:1031F000E66E030EE66E9AEC1EF0E552E552120002
:10320000400EE66E000EE66E050EE66EE66A010EF4
:1032100052D8F3CFCDF0F4CFCEF0120086EC1CF0F4
:103220001E0EE66E40EC21F0E552CC0E51EF19F087
:10323000020EDB501610146E030EDB501710156EC5
:10324000020E14C0DBFF030E15C0DBFF1200E66E9A
:1032500019EC1AF0E552E5521200E552FF0EE66E47
:10326000E66AEBEC20F0E5521200CFC0E9FFD0C0D7
:10327000EAFFEF50800B1200E16EE552E7CFD9FF75
:103280001200D9CFE6FFE1CFD9FF1200600EE66E43
:10329000000EE66E1200B9EC1AF08CEC19F0F7EFA4
:1032A00018F0E66EBAEC1CF0E552010EE66E40EC4A
:1032B00021F0E5521200E66E2AEC09F0146E050EBC
:0C32C000E15E14501200C3DF88EF19F02B
:0432CC008C8A010ED9
:1032D0008AD98C9A010EF3EF1AF08CD9FB0EDB50D1
:1032E000E8B08C80E8A08C90FC0EDB50E8B08C82BB
:1032F000E8A08C92FD0EDB50E8B08C84E8A08C94A2
:10330000FE0EDB50E8B08C86E8A08C96DFDF77D12C
:103310008FD9E3D94CEF1BF0BFD969EF1BF06AD905
:10332000E652DF6A9ED9E8AE02D0E73402D0E75019
:10333000145C05E2C6D9010ED0D9DF2AF3D7E552D5
:103340005ED158D9E652DF6A8CD9E8AE02D0E734B4
:1033500002D0E750145C04E2B4D9C2D9DF2AF4D712
:10336000E5524DD147D9FE0EDB50040A13E0070A9F
:103370000FE0010A07E0030A15E1E66AE66AE66A79
:10338000010E01D055D9A9D9E66AE66AE66A08D0E5
:103390003AD904D0010EE66EE66AE66E9ED948D9A7
:1033A000E66A1BD92CD126D9040EE1268C88FE0EA4
:1033B000DB50800BE844010BDF6E060E146EFE0E30
:1033C000DB50400B14C0E7FFE75204E0E8427F0BFC
:1033D000E706FCE1E76E010E30D9200BE00BE83880
:1033E000E840E76E020E29D9100BE8380F0B59D9C7
:1033F000FE0EDB50080BE840E840E8401F0BDF6E94
:10340000FE0EDB50040BE840E8403F0BE76E010E78
:1034100014D9020BE8407F0BE76E020E0ED9010BA8
:1034200040D98C98040EE15C02E2E16AE552E16E5B
:10343000E6D0E0D8F4D805E0F2D804D9FBE3DB2AE3
:10344000F9D7DDD0D7D805D905E003D9FBD8FBE300
:10345000DB2AF9D7D4D0CED8070EE126D9CFE6FFA4
:10346000DACFE6FF05D939EC1DF0E552E552E55219
:10347000E552FC0EDBCF14F0000EE76E1418E8AE38
:1034800002D0143403D0E750D880145464E2F7D843
:10349000FC0EDBCF16F0176A16BE1768B9D8EF6AB4
:1034A000D9CF16F0DACF17F0FC0EDB04186E196ACC
:1034B00018BE196816501824E96E17501920EA6EC4
:1034C000EF50E66EE66A02EC21F0E552E552F3CFEA
:1034D00014F0F4CF15F0F350F4103DE1FC0EDB04D2
:1034E000E76E060EE7CFDBFFDBCF14F0000EE76ED2
:1034F0001418E8AE02D0143403D0E750D880145426
:10350000CFE2D9CF18F0DACF19F0060EDB041A6E2D
:103510001B6A1ABE1B6818501A24E96E19501B202A
:10352000EA6EEF50E66EABD8060EDBCF16F0176AE8
:1035300016BE17686DD8E552E750EF6EA0D8060E9C
:10354000DB04166E176A16BE176862D8200EEF6E7F
:10355000060EDB06C9D7D9CFE6FFDACFE6FF72DF6A
:10356000E552E552070EE15C02E2E16AE552E16EE6
:1035700046D092D848D870EF1BF03CD88DD878D878
:10358000010EE66EAAD83BD035D8FE0EDB50E8B06F
:103590008C8EE8A08C9E33D02DD8FE0EDBCFE6FFBC
:1035A000EEEC1EF0E5528C988C9A8C9C640E6CD8D4
:1035B0006BD86AD818D88DD88CD8E66A39D80DD887
:1035C0006BD8E66A010EE66EE66E87D8E66AE66AB2
:1035D000D4DFE552E552CDDF12D07FDEE552E55271
:1035E000E552E5521200E66EE66A9AEC1EF0E552EC
:1035F000E5521200D9CFE6FFE1CFD9FF1200E55224
:10360000E7CFD9FF1200010EE66EE66AE66A120005
:1036100014501624E96E15501720EA6E1200FD0EA4
:10362000DBCFF6FFFE0EDBCFF7FF0800F5501200F0
:10363000E66AE66A010EE66E1200E7CFDBFFFE0ED9
:10364000DB501200E66EAFDEE552FD0EDB2AFE0E09
:103650001200FD0EDBCFE9FFFE0EDBCFEAFFEF50DD
:103660001200DFCF14F0FD0EDB50E76E14181200CD
:10367000FD0EDBCFE6FFFE0EDBCFE6FF1200D9CF5B
:1036800014F0DACF15F01200AEDF010EE66EE66E32
:10369000E66A26D8050E1200E66AE66AE66A70EF68
:1036A0001BF0E76E030EE7CFDBFFDBCFE6FF020E7A
:1036B000DBCFE6FF010EDBCFE6FFDFCFE6FFEDEF6E
:1036C0001AF0A1DF0DD8E66AE66AFE0EDBCFE6FF50
:1036D0001200E66A98DFEDEF1AF0E66EEDEF1AF0F1
:0636E000E66AEDEF1AF0AE
:0A36E600E6D82F0EDF6E0001D66B50
:1036F000938A819A939A3A0EE66E40EC21F0E55255
:10370000938A140EE66E40EC21F0E5528150200BB6
:1037100001E0010E0001D46F8150200B01E0010E89
:10372000D56FE85002E1010E01D0070ED66FD40527
:1037300003E1020ED62702D0070ED66F020EB5D8CF
:10374000BFD0B8D8080EDF6EDFCF14F0000EE76EE2
:103750001418E8AE02D0143403D0E750D8801454C3
:103760001DE2FE0EDB50010B0001D76F819A939A88
:10377000040E9BD80001D751E8B0938AE8A0939A31
:10378000320E93D8938A020E90D8FE0EDB407F0B48
:10379000E76EFE0EE7CFDBFFDF06D6D7020E85D839
:1037A0008FD0D9CFE6FFE1CFD9FF020EE126080E78
:1037B000DF6E010EDB6ADFCF14F0000EE76E141827
:1037C000E8AE02D0143403D0E750D880145424E279
:1037D000819A939A010E69D8938A040E66D8815013
:1037E000200B01E0010E0001D76F010EDB407F0BC3
:1037F000E76E010EE7CFDBFFD7050AE1800E146EFE
:10380000010EDBCFE7FF1450E726010EE7CFDBFF09
:10381000320E4BD8DF06CFD7020E47D8010EDB5051
:10382000146E020EE15C02E2E16AE552E16E1450B0
:10383000E552E7CFD9FF12003DD8550E4FD8DF6AC9
:10384000DFCF14F0080EE76E1418E8AE02D0E734AC
:1038500002D0E750145C0AE2DFCF14F0156A14BE00
:10386000156833D8EF503AD8DF2AEAD729D022D8C2
:10387000330E34D8DF6ADFCF14F0080EE76E141869
:10388000E8AE02D0E73402D0E750145C0DE289DFE5
:10389000E66EDFCF14F0156A14BE156816D8E5522F
:1038A000E750EF6EDF2AE7D70BD0E66E4EEC21F043
:1038B000E5521200D9CFE6FFE1CFD9FFE652120060
:1038C000E552E552E7CFD9FF1200FD0EDB5014247C
:1038D000E96EFE0EDB501520EA6E1200E66E31DF57
:0438E000E55212009B
:0C38E400D9CFE6FFE1CFD9FFFD0EDBCF0E
:1038F000E6FF4EEC21F0E552000000000000000061
:1039000000000000E552E7CFD9FF12008ED8DF6A31
:10391000819A939AF00E83D8F00E81D8938A460E3E
:103920007ED88150200B01E0010EDF6ECD0E77D8DE
:10393000CD0E75D8DF50E5527BD096D8020EE12629
:10394000010EDB6ADF6A080EDF5C09E2010E81D836
:1039500043D8000902E0010EDB8EDF2AF4D7010E06
:10396000DB50146E020EE15C02E2E16AE552E16EA8
:1039700014505ED05AD8DF6A080EDF5C0AE2FE0EF1
:10398000DB50010BE66E3AD8E552FE0E62D8DF2A14
:10399000F3D7E5524DD049D8B9DF330E61D8DF6A8D
:1039A000080EDF5C08E2C9DFE66E46D8E552E75054
:1039B000EF6EDF2AF5D7E5523BD037D8A7DF550E9B
:1039C0004FD8DF6A080EDF5C05E236D8EF5048D8E2
:1039D000DF2AF8D7E5522CD028D8819A939A060E80
:1039E0001ED8938A090E1BD88150200B01E0010ECE
:1039F000DF6E370E14D8DF50E5521AD035D8819AD1
:103A0000939AFE0EDB5005E0060E09D8938A400E0D
:103A100004D03C0E04D8938A0A0E01D809D0E66E71
:103A2000E66A60DFE552E55212001ED8E652120047
:103A3000E552E7CFD9FF1200DF50E76EFD0EDBCF76
:103A4000E9FFFE0EDBCFEAFFE750E926000EEA228F
:103A50001200DBCFF3FFF390F342F3CFDBFF120052
:103A6000E66E88DFE5521200D9CFE6FFE1CFD9FF3D
:023A7000120042
:0E3A7200D9CFE6FFDACFE6FFFA0EE3CFD9FF99
:103A8000FB0EE3CFDAFFFD0EE35209E72D0EDE6EEB
:103A9000FC0EE31EE32AFD0ED8B4E306E31EE65255
:103AA000E652E652FD0EE124E76EFF0EE220E46EE0
:103AB000E652F70EE3CFE6FFF70EE3CFE6FFA9EC01
:103AC0001DF0F90EE124E96EFF0EE220EA6E99EC9A
:103AD0001DF00AE196EC1DF009E199EC1DF008E1FA
:103AE00096EC1DF007E108D0A4EC1DF09FEC1DF052
:103AF000A4EC1DF09FEC1DF0A4EC1DF0DE6AF90EA5
:103B0000E126FF0EE222FF0EE3CFDAFFE552FF0EC1
:103B1000E3CFD9FFE552FC0EE124E96EFF0EE2206F
:103B2000EA6EEECFF3FFEFCFF4FF1200EF380F0B8A
:103B30001200EF500F0B02E1EE52D8841200EF3862
:103B40000F0B300FDE6E1200EE500F0B300FDE6EDB
:103B50001200FC0EE3CFE9FFFD0EE3CFEAFF100EEB
:103B6000E66EEE6AEE6AEF6AD890FD0EE336FE0E60
:103B7000E336ED36ED36EF36FF0EE30609E0CAEC2C
:103B80001DF0EE52CAEC1DF0EE52CAEC1DF0EDD75E
:103B9000E56E1200030EEF24E8B6EF6E300EEF2450
:063BA000E8BEEF6E000C10
:0A3BA600040120511F0B010801E08B
:103BB0001200245101E01200060E215D1EE1235186
:103BC000230A1BE0010A0CE0030A17E10001960535
:103BD00014E10001920EA66F3C0EA76F090E09D0EA
:103BE000000196050AE100010F0EA66F3D0EA76FBA
:103BF0001C0EA96FAA6BC00EA86F04012051600BA8
:103C0000E842E842E842E842E842010801E01200E6
:103C100021510B0A26E0080A19E0090A11E0080AF6
:103C200005E00B0A23E0080A21E012000001D80E8B
:103C3000A66F000EA76F010EA96FAA6BC10E0FD061
:103C40000001800EA86F23C4D8F012000001D90E25
:103C5000A66F000EA76F010EA96FAA6B810EA86F49
:0E3C600012000001800EA86F22C4D9F01200DD
:023C6E00120141
:103C7000000200000008D8043F0002000102000119
:103C800009022900010100C03209040000020300FA
:103C90000000092111010001221C000705810340D9
:103CA0000001070501034000010403090434034D2A
:103CB000006900630072006F0063006800690070B3
:103CC00000200054006500630068006E006F006C07
:103CD000006F0067007900200049006E0063002E2D
:103CE000002E03530069006D0070006C0065002019
:103CF0000048004900440020004400650076006947
:103D000000630065002000440065006D006F000640
:103D100000FF0901A101190129401501254075087D
:103D200095408100190129409100C0803CA93CAD1B
:033D30003CE13C37
:013D3300147B
:0C3D3400D9CFE6FFE1CFD9FF060EE12653
:103D4000DE6ADD6A0001DC51146E156AFD0EDBCF00
:103D500008F0FE0EDBCF09F0DCC00DF015C00EF050
:103D60009AEC20F006C0DEFF07C0DDFF020EDB6A22
:103D7000030EDB6A020EDBCF14F0030EDBCF15F06F
:103D8000DECF16F0DDCF17F01650145C1750155823
:103D90001BE2040EDB6A050EDB6A040EDBCF14F0B7
:103DA000050EDBCF15F00C0E145C000E155806E264
:103DB000040EDB2A050EF1E3DB2AEFD7020EDB2A25
:103DC000030ED8E3DB2AD6D7060EE15C02E2E16AF5
:103DD000E552E16EE552E7CFD9FF1200D9CFE6FFF9
:103DE000E1CFD9FFFE0EDBCFDCF0E552E7CFD9FF04
:023DF0001200BF
:0E3DF2002A0EF66E100EF76E000EF86E00012F
:103E00000900F550C86F0900F550C96F03E1C86794
:103E100001D03DD00900F550C36F0900F550C46FC3
:103E20000900F550C56F09000900F550E96E090059
:103E3000F550EA6E090009000900F550C66F090047
:103E4000F550C76F09000900F6CFCAF0F7CFCBF0E5
:103E5000F8CFCCF0C3C0F6FFC4C0F7FFC5C0F8FF71
:103E60000001C65302E1C75307E00900F550EE6EAA
:103E7000C607F8E2C707F9D7CAC0F6FFCBC0F7FFFD
:103E8000CCC0F8FF0001C807000EC95BBFD7120005
:103E9000FE0EE3CFE9FFFF0EE3CFEAFFE9CFF3FF2A
:103EA000EACFF4FFFB0EE35003E1FC0EE35009E020
:103EB000FB0EE30602E2FC0EE306FD0EE350EE6E9F
:103EC000F1D71200FE0EE3CFE9FFFF0EE3CFEAFFCA
:103ED000F36AF46AEE5203E0F34AF42AFBD71200C5
:103EE000FF0EE3CFF8FFE552FF0EE3CFF7FFE552F9
:103EF000FF0EE3CFF6FFE552E66AE66AE66A0900DE
:103F0000F55209E0FD0EE32A05E1FE0EE32A02E187
:103F1000FF0EE32AF4D7FD0EE3CF07F0FE0EE3CF4A
:0A3F200008F0FF0EE3CF09F01200D5
:063F2A00D9CFE6FFDACF5B
:103F3000E6FFE1CFD9FFE2CFDAFFE652E652E652E2
:103F4000E652D950FB0F146EFF0EDA20156E14C026
:103F5000DEFFDD6EDECFE6FFDDCFE6FFFB0EDBCF63
:103F6000E6FFFC0EDBCFE6FFFD0EDBCFE6FFDAC09F
:103F7000E6FFDBC0E6FFC8EC0EF0146E070EE15C56
:103F800002E2E16AE552E16E1450020EF3CFDBFF6C
:103F9000030EF4CFDBFF020EDBCF14F0030EDBCFFA
:103FA00015F014C0F3FF15C0F4FF040EE15C02E24B
:103FB000E16AE552E16EE552E5CFDAFFE7CFD9FFDE
:023FC0001200ED
:0E3FC200D9CFE6FFDACFE6FFE1CFD9FFE2CF9D
:103FD000DAFFFB0EDBCF14F0FC0EDBCF15F0000197
:103FE000800E15141AE1FB0EDBCFE9FFFC0EDBCFD0
:103FF000EAFFEECFF3FFEDCFF4FFEE2A000EEF2243
:10400000F3CFE9FFF4CFEAFFFD0EDBCFEFFFEF5078
:10401000156AF36E15C0F4FF10D0FB0EDB50FE08DE
:1040200006E1FD0EDBCFE6FF32EC21F005D0FD0E00
:10403000DBCFE6FF62EC21F0E552E552E5CFDAFF97
:06404000E7CFD9FF1200DA
:0A404600444953504F534954495662
:104050004F2052494C455641544F3A004572726FB9
:104060007265204255532031205749524520004E59
:10407000455353554E20444953504F534954495684
:104080004F004E657373756E20646973706F73694A
:104090007469766F20315769726520636F6C6C6547
:1040A0006761746F0A0D0A0D006279204D41582036
:1040B0002D2042454E45200050524F544F20424F34
:0440C0004152440025
:0C40C40006500B02F3CF02F0F4CF03F023
:1040D0000C02F3500326000EF420046E06500D026D
:1040E000F3500426000EF420056E06500E02F35025
:1040F000052607500B02F3500326F4500422000E4D
:10410000052207500C02F3500426F45005220750F4
:104110000D02F350052608500B02F3500426F4500C
:10412000052208500C02F350052609500B02F350EB
:04413000052612004E
:0C41340009C013F008C012F008500D0282
:10414000F4CF07F0F3CF06F009500E02F4CF09F0D8
:10415000F3CF08F00D02F3500726F4500822E86A66
:10416000092212500E02F3500726F4500822E86A82
:1041700009220EAEC0EF20F01250085E1350095A0B
:0E41800013AE000C0D50085E0E50095A000CD4
:02418E00056AC0
:10419000046A036A026A200EE76ED8900636073674
:1041A0000836093602360336043605360B50025CF3
:1041B0000C5003580D5004580E50055809E30B508D
:1041C000025E0C50035A0D50045A0E50055A062A2E
:0641D000E72EE4D7120007
:0A41D600FF0EE3501D6EEF0E01D046
:1041E000F30EE76EE72EF2EF20F00C0E1C6EE76A7E
:1041F000E72EF8EF20F01C2EF7EF20F01D2EF0EF49
:0442000020F0120098
:0C420400F36AF46AFF0EE124E96EFF0E7D
:10421000E220EA6EED6607D02F0EEF6404D03A0E6E
:08422000EF6001D0F32A120047
:08422800FF0EE3501D6E480E6D
:1042300001D04C0EE76EE72EFED7E76AE72EFED7D9
:084240001D2EF7D7000012004B
:0842480013EE00F023EE00F07C
:10425000F86A019CF9EC1EF063EC21F01FEC15F0FC
:04426000FBD7120076
:0C426400FF0EE350ACBA04D0AF6AAB8E82
:10427000AC8A949CACA2FED7AD6EF36EF46A1200C9
:10428000FF0EE3501D6E1B0E00D001D0200EE76E16
:0C429000E72EFED71D2EFAD700D012003A
:04429C00FF0EE350DE
:1042A000E84E1200000000D000D000D0E82EFAD76F
:0242B0001200FA
:0E42B200303132333435363738396162636467
:0342C00065660030
:0242C4001200E6
:0242C6001200E4
:0242C800FEFFF7
:0642CA00000000000100ED
:0142D00000ED
:020000040030CA
:0100000024DB
:010001000EF0
:010002003FBE
:010003001EDE
:010005008179
:010006008178
:010008000FE8
:01000900C036
:01000A000FE6
:01000B00E014
:01000C000FE4
:01000D0040B2
:00000001FF
